:100000000C94BC020C9401030C9401030C940103A6
:100010000C9401030C9401030C9401030C94010350
:100020000C9401030C9401030C9401030C94010340
:100030000C9401030C94CA560C9401030C94010314
:100040000C9401030C9401030C9401030C94010320
:100050000C9401030C9401030C9401030C94010310
:100060000C9401030C94475B0C94B25B0C94010359
:100070000C9401030C9401030C9401030C940103F0
:100080000C9401030C9401030C9401030C940103E0
:100090000C9401030C9401030C9401030C940103D0
:1000A0000C9401030C9401030C9401030C940103C0
:1000B0000C9401030C9401030C9401030C940103B0
:1000C0000C9401030C9401030C940103C913CB138A
:1000D0000413CE13D913DC13DF13E213EB13EE1367
:1000E000D42695269B26A4268F26C826B026CE2663
:1000F000A026C026A0265C285C285C285E285E28F6
:10010000602867286728672867286728802F082DB8
:10011000162D752D2A2BDE2E312E102F3E2F982EC8
:100120009B2F802F9960A260A660AA60AE60C2601B
:10013000CB60CF60D3600A612F6135613B61416163
:10014000476154616761876194615D614F624F628D
:100150004F624F62DB61DF61E361FC610062166246
:100160004F621A62216225622C62306237623B6202
:1001700044626D6187617A6187614F624F624F624D
:100180004F62A061AD61B561D3610C9447610C947D
:10019000CB600C94CE130C94D11F0C943D3B0C946B
:1001A00094610C946E5A0C94F4190C94982E0C943F
:1001B000233C0C941B1E0C9405570C9421620C9448
:1001C00074600C94275A0C94DA590C94AB310C944B
:1001D0002B550C9467610C94E3610C94E0400C94F3
:1001E00000620C943B610C944F620C942D3B0C9478
:1001F000983B0C9495260C94195A0C94AC5F0C9473
:100200002F610C9404130C943B620C9437620C9491
:1002100087610C94AE5A0C947A610C94DF130C94A1
:100220009B2F0C94575A0C94D9130C94A0260C9421
:100230000A610C94A2570C94EE130C942E5C0C944F
:100240000E3C0C94102F0C942C620C94C9130C943B
:10025000802F0C94FD560C94D3610C94C8260C94FA
:10026000925E0C9430620C94D0570C9445300C94F0
:1002700067280C94DC130C94AA600C94F4570C942B
:1002800015580C948F260C949A5F0C94B0260C94FD
:10029000CD5A0C94A9400C94CB130C945E280C946A
:1002A00054610C94C0260C94AD610C94A6600C941F
:1002B000A9490C94E2130C94FC610C945C280C94F6
:1002C00095570C945D610C943A590C94CB230C9483
:1002D000B3580C94C6580C94A4260C94C0590C9492
:1002E000A2600C941A510C942E550C94A35F0C949C
:1002F0001A620C94EB130C94752D0C94DF610C9422
:10030000715B0C9400600C94FE5A0C9499600C94F0
:10031000DC5B0C94CF600C94AE600C942A2B0C9494
:1003200031550C9425620C9403030C94C2600C9418
:1003300016620C9435610C94B5610C94162D0C94D6
:10034000201A0C94A0610C94082D0C946D610C94EF
:10035000D3600C9463580C94D0490C94CA3B0C9411
:100360000C4E0C94CE260C9461620C947B4D0C9434
:100370003E2F0C94DB1C0C940D080C94F6030C948B
:10038000312E0C9444620C94D4260C94121C0C94C0
:10039000303B0C942E570C9460280C9441610C94C3
:1003A00071620C94B25E0C94DE2E0C949B260C941D
:1003B000DB610C948556696E6465782E68746D6C8B
:1003C000003C68746D6C3E0A3C686561643E3C2F7D
:1003D000686561643E0A3C626F64793E0A3C68313C
:1003E0003E576F726B733C2F68313E0A3C2F626F31
:1003F00064793E0A3C2F68746D6C3E0A3C48544D4B
:100400004C3E3C484541443E3C5449544C453E25B5
:10041000642025733C2F5449544C453E3C2F48459D
:1004200041443E3C424F44593E25642025733C2FB5
:10043000424F44593E3C2F48544D4C3E0D0A005704
:1004400057572D41757468656E7469636174653AB8
:10045000204261736963207265616C6D3D22257372
:10046000220D0A00636C6F73650D0A0D0A00436F5D
:100470006E6E656374696F6E3A2000436F6E7465CB
:100480006E742D4C656E6774683A20256C640D0A95
:1004900000436F6E74656E742D547970653A202533
:1004A000730D0A00485454502F25642E25642025CE
:1004B000642025730D0A5365727665723A2045747F
:1004C0006865726E75742025730D0A00FFFFFFFFCB
:1004D000FFFFFFFFFFFFFF3EFFFFFF3F34353637D3
:1004E00038393A3B3C3DFFFFFFFFFFFFFF000102B1
:1004F000030405060708090A0B0C0D0E0F10111254
:1005000013141516171819FFFFFFFFFFFF1A1B1C06
:100510001D1E1F202122232425262728292A2B2C93
:100520002D2E2F30313233FFFFFFFFFF4E41004EA3
:1005300041004E41004E41003031323334353637C0
:100540003839414243444546303132333435363709
:100550003839616263646566303030303030303055
:10056000303030303030303020202020202020200B
:10057000202020202020202084E880937400112453
:100580001FBECFEFD1E2DEBFCDBF00E00CBF18E051
:10059000A0E0B2E0ECEFFBEC00E00BBF02C0079084
:1005A0000D92AA38B107D9F729E0AAE8B8E001C04E
:1005B0001D92A43CB207E1F78FEF9FE79EBF8DBF6E
:1005C0008FEF9FE7845C99408138914050F04FEF66
:1005D0005EE7445C594064EC79E081EA99E00E946E
:1005E000854C0E94C85220E831E040E050E066EFC0
:1005F00073E088E895E00E9474550E9400000C9416
:10060000FC650C940000CF93DF9300D01F92CDB710
:10061000DEB780E092ECA1E0B0E089839A83AB83FF
:10062000BC8340E060E070E084E593E00E949C526F
:100630004091A6025091A70264E574E086E593E03C
:100640000E94FF3E8091A6029091A7020E94C73EA1
:10065000AE014F5F5F4F61E071E00E94593C0E9424
:10066000B04B9F938F9386E594E09F938F930E9466
:10067000FD3F81E894E09F938F9386E894E09F93F9
:100680008F930E94FD3F40E060E070E082E093E0E5
:100690000E949C520FB6F894DEBF0FBECDBF892BCF
:1006A00029F086E994E00E941140FFCF20E63AEE5F
:1006B00040E050E060E070E081E894E00E944E0E7F
:1006C000892B29F08FEB94E00E941140FFCF6091BD
:1006D0007709709178098091790990917A090E943F
:1006E00028219F938F938FEE94E09F938F930E9486
:1006F000FD3F89EF94E09F938F930E94FD3F40E080
:1007000060E070E08FE792E00E949C520F900F90A3
:100710000F900F900F900F90892B29F086E195E0B4
:100720000E941140FFCF8EE195E00E9411408DE3C1
:10073000E82E85E0F82E9AE4C92E95E0D92E2BE517
:10074000A22E25E0B22E32E2832E35E0932E0E94B7
:10075000FB1A8C01892BA9F48091A0098F938091B9
:100760009F098F939F928F920E94FD3F68EE73E0E6
:1007700080E090E00E9487500F900F900F900F90B4
:10078000E6CFFF92EF920E94FD3F60E570E0C80166
:100790000E94671BDF92CF920E94FD3F67E575E0E4
:1007A000C8010E94033E3C010F900F900F900F90E4
:1007B000009779F48091A0098F9380919F098F937E
:1007C000BF92AF920E94FD3F0F900F900F900F903D
:1007D00005C00E947F12C3010E94C43DC8010E944F
:1007E0001D1E86E795E00E941140B1CF0E94B14ED8
:1007F00020E033E040E050E063E073E083E895E020
:100800000E9474558EEF0E94D54D0E94854D0E9426
:100810009C4DE0918B08F0918C08309709F0199568
:1008200090910A029F3F89F383B723B7217F922BD0
:1008300093BF93B7916093BF889593B79E7F93BF03
:1008400093B7917F8E70892B83BFDFCF062E692FE0
:10085000902D072E782F802D0895CF93DF93EC01F4
:10086000892B69F089A59AA50E9401468BA59CA5B4
:100870000E940146CE01DF91CF910C940146DF9199
:10088000CF910895CF92DF92EF92FF920F931F9333
:10089000CF93DF931F921F92CDB7DEB77C016A0121
:1008A000FC018081918169837A830E940146C6019F
:1008B00001960E94F3458C01F70191838083698141
:1008C0007A81009751F0C114D10419F0A6010E9459
:1008D0001E65F601E00FF11F10820F900F90DF915F
:1008E000CF911F910F91FF90EF90DF90CF900895DF
:1008F0004F925F926F927F928F929F92AF92BF9230
:10090000CF92DF92EF92FF920F931F93CF93DF93DB
:100910008C017B018DE290E00E94F345EC01892B74
:1009200009F40BC18DE2DE011D928A95E9F780EC96
:1009300098EAA0E0B0E08DA39EA3AFA3B8A7F8010A
:1009400080899189A289B38989839A83AB83BC8387
:1009500000511F4FF0EFEF1AF1085E018BE2A80E75
:10096000B11C4E01A9E28A0E911CD8012C912F3F97
:1009700009F4DAC01E141F040CF0DCC0211106C0FB
:100980000F5F1F4FB1E0EB1AF108EFCFF801318193
:10099000C32ED12CEC14FD040CF4CCC0253331F45F
:1009A000313009F0C7C082818883B6C02C3031F461
:1009B000A601B8016E5F7F4FC40107C02F3041F41C
:1009C000A601B8016E5F7F4FC5010E944204A4C01A
:1009D000343008F4A1C0D801E28113966C91862FBF
:1009E00090E0A0E0B0E04427582F692F7A2FD8017B
:1009F00014968C9190E0A0E0B0E0DC019927882764
:100A0000840F951FA61FB71F8E0F911DA11DB11D2D
:100A1000F801458150E060E070E0742F66275527AB
:100A200044272A013B01480E591E6A1E7B1EC30142
:100A3000B201213029F44D825E826F8278866CC0CB
:100A40002C3129F449865A866B867C8665C0233012
:100A500029F44D865E866F86788A5EC02630D9F589
:100A6000498A5A8A6B8A7C8A383008F455C0D80182
:100A700016968C91169717964C91179750E060E058
:100A800070E0762F652F542F44272A013B01480E32
:100A9000511C611C711C18968C9190E0A0E0B0E094
:100AA000DC0199278827AC01BD01440D551D661D49
:100AB000771DF801818590E0A0E0B0E0B82FAA276B
:100AC00099278827840F951FA61FB71F8D8B9E8B94
:100AD000AF8BB88F21C0263329F4498E5A8E6B8E86
:100AE0007C8E1AC02A3339F40E9426046D8F7E8FC3
:100AF0008F8F98A311C02B3339F40E94260469A369
:100B00007AA38BA39CA308C0233331F40E9426044C
:100B10006DA37EA38FA398A7F2E0CF0ED11C0C0D7E
:100B20001D1DEC18FD0821CF8881823049F08550C9
:100B3000823030F0CE010E942D0480E090E03CC075
:100B40008D8D9E8DAF8DB8A1892B8A2B8B2B61F457
:100B50008DA19EA1AFA1B8A5B695A79597958795AC
:100B60008D8F9E8FAF8FB8A389A19AA1ABA1BCA195
:100B7000892B8A2B8B2BF9F48D8D9E8DAF8DB8A18F
:100B80008C019D013695279517950795AC01BD0100
:100B9000E2E07695679557954795EA95D1F7400F2E
:100BA000511F621F731F840F951FA61FB71F89A3B4
:100BB0009AA3ABA3BCA3CE01DF91CF911F910F915C
:100BC000FF90EF90DF90CF90BF90AF909F908F906D
:100BD0007F906F905F904F900895EF92FF920F93E8
:100BE0001F93F901E00FF11FE451FF4FAFEFA08316
:100BF0007801EDEEEE0EF11CECE2EE16E1E0FE0601
:100C000020F4ECE2EE2EFF24F394890123E430E09B
:100C10000E948C1E97FF09C083E190E090939A0890
:100C2000809399088FEF9FEF02C080E090E01F91C2
:100C30000F91FF90EF9008952F923F924F925F9205
:100C40006F927F928F929F92AF92BF92CF92DF92DC
:100C5000EF92FF920F931F93CF93DF93CDB7DEB741
:100C600060970FB6F894DEBF0FBECDBF9C878B8711
:100C70002A013B011901470158010E94E6506F8388
:100C8000788789879A8767017801A50194012A5F8F
:100C90003109410951092D873E874F87588B04E25E
:100CA00012E09101AE014B5F5F4FBE016F5F7F4F5E
:100CB0008B859C850E94D81E181619064CF000974B
:100CC000B9F124E130E030939A082093990830C0BC
:100CD000823F91057CF0D1012C91223059F4149679
:100CE0004D915D916D917C91179744155505660561
:100CF0007705F1F00E94E650DC01CB012F813885A9
:100D000049855A85821B930BA40BB50B2D853E8517
:100D10004F85588982179307A407B50738F47501E2
:100D20006401C81AD90AEA0AFB0AB9CF80E090E048
:100D300060960FB6F894DEBF0FBECDBFDF91CF91A6
:100D40001F910F91FF90EF90DF90CF90BF90AF90E9
:100D50009F908F907F906F905F904F903F902F90DB
:100D60000895EF92FF921F93CF93DF9300D01F92CD
:100D7000CDB7DEB7162F29833A834B835C830E945D
:100D800080527C0129813A814B815C81009729F056
:100D9000DC011B968C91833049F081E190E09093C7
:100DA0009A08809399088FEF9FEF46C0D7011F964E
:100DB000ED91FC915097309781F38081863069F7EF
:100DC00029833A834B835C830E94E65060938D08AD
:100DD00070938E0880938F089093900829813A81B0
:100DE0004B815C8120939108309392084093930843
:100DF0005093940810939B0880919C0890919D08B3
:100E0000892B69F420E231E0A7016DE078E08DE8FC
:100E100095E00E94745590939D0880939C0887E903
:100E200098E00E94D45140E050E0BA0185E998E092
:100E30000E94605180E090E00F900F900F900F9013
:100E4000DF91CF911F91FF90EF900895CF92DF92A5
:100E5000EF92FF920F931F93CF93DF93EC0184E205
:100E600092E0DE01FC011D923197E9F781E0888371
:100E7000898396E09A83E1E7F9E0DE015C960190D0
:100E80000D929A95E1F72C833D834E835F830C2C62
:100E9000CD2CD02CD986C886EC86FD860E871F8780
:100EA000FE01E451FF4F93E69083319622E82083C0
:100EB000319623E5208331969083319695E3908394
:100EC00031968083CE50DF4F688387E090E0DF91DA
:100ED000CF911F910F91FF90EF90DF90CF900895E9
:100EE0002F923F924F925F926F927F928F929F923A
:100EF000AF92BF92CF92DF92EF92FF920F931F9328
:100F0000CF93DF93CDB7DEB73C011A012B01490126
:100F1000A80197018601750154018CEEA80EB11C41
:100F2000CE8CDF8C63E0C4010E9426072E893F89A6
:100F3000488D598D232B242B252B81F0F501E80FAB
:100F4000F91F22E3208324E021832E893F89488DE5
:100F5000598D228333834483558306962A8D3B8D96
:100F60004C8D5D8D232B242B252B81F0F501E80F73
:100F7000F91F26E3208324E021832A8D3B8D4C8DAD
:100F80005D8D22833383448355830696F501E80FF4
:100F9000F91F27E3208323E0218331E03283238379
:100FA00026E024838C010B5F1F4FE2EBF9E00190F8
:100FB0000020E9F7AF01435B594014161506A4F46D
:100FC000F501E00FF11F8CE0808341837A01FF245B
:100FD000A70162EB79E0CF0102960E941E65A7018E
:100FE0004E5F5F4F040F151F9401B201A101C301B1
:100FF0000E94ED05DF91CF911F910F91FF90EF902F
:10100000DF90CF90BF90AF909F908F907F906F9028
:101010005F904F903F902F900895CF93DF93CDB77F
:10102000DEB7A0970FB6F894DEBF0FBECDBF8C0120
:101030000E94DD506A8F7B8F8C8F9D8F2091770966
:10104000309178094091790950917A092E8B3F8B24
:10105000488F598FD8011F960D90BC91A02DBF8F3E
:10106000AE8FFD013B96CD0107961F82188619862B
:101070001A86EF80F88409851A85702F6F2D5E2DF2
:10108000442722917A018B01E20EF11C011D111DF2
:10109000EF82F88609871A87E817F90751F700EAFF
:1010A0001FE020E030E00B831C832D833E831B86F2
:1010B0001A8A1B8A1C8A1D8A198A188A212C312CAB
:1010C000812C912C0E94DD506B017C011B8511232A
:1010D00009F12B813C814D815E81220F331F441F1A
:1010E000551F2B833C834D835E8321303A4F41054E
:1010F000510540F000E01AEF20E030E00B831C8344
:101100002D833E832FEF3FEFA9012C873D874E872C
:101110005F8749C080919B08833059F08F81988503
:10112000A985BA850196A11DB11D8F839887A987CE
:10113000BA87E0919E08F0919F083097A9F0018D41
:10114000128D238D348D0C871D872E873F87012BB1
:10115000022B032BC9F020EA3FE040E050E02B8354
:101160003C834D835E831FC08FEF9FEFDC018C8734
:101170009D87AE87BF8700EA1FE020E030E00B8349
:101180001C832D833E830FC02FEF3FEFA9012C87D7
:101190003D874E875F8780EA9FE0A0E0B0E08B83C9
:1011A0009C83AD83BE8380919B08882309F444C04F
:1011B000853009F441C08091910890919208A091E6
:1011C0009308B0919408892B8A2B8B2BA9F10E944C
:1011D000E65000918D0810918E0820918F08309173
:1011E0009008AB01BC01401B510B620B730B80914B
:1011F000910890919208A0919308B0919408481793
:1012000059076A077B0738F0A1E0B0E0B0939A086D
:10121000A09399087BC0841B950BA60BB70B0B8181
:101220001C812D813E8180179107A207B30720F40E
:101230008B839C83AD83BE8380919B08823021F099
:101240009AEF980F9230D0F4BB85BB2349F1B701D8
:10125000A6010A8D1B8D2C8D3D8D401B510B620B01
:10126000730B411551056140710508F000C59601E9
:101270004A8D5B8D241B350B398B288B853011F003
:10128000811114C08114910419F0C4010E945D1FE2
:10129000C1010E940146212C312C812C912C49C086
:1012A000CA8EDB8EEC8EFD8E198A188A80919E087C
:1012B00090919F08892B51F4EE8DFF8D8385948545
:1012C000A585B685892B8A2B8B2B01F5811491047A
:1012D00021F02114310469F508C084E490E00E94F3
:1012E0002B1E4C0121143104A1F484E292E00E94EF
:1012F000F3451C018114910411F0892B61F492E1F2
:10130000E92EF12CF0929A08E092990810929B082D
:10131000D9CE892BA1F300EC16E01A83098322E0D1
:1013200030E0AE014F5F5F4F62E070E1C4010E94A8
:101330009C1F80919B08813021F52F81388549853C
:101340005A852F5F3F4F4F4F5F4F2F833887498715
:101350005A8780917B0990917C09A0917D09B09179
:101360007E09EE88FF88088D198D8E219F21A0238C
:10137000B123892B8A2B8B2B11F482E068C284E085
:1013800066C2823009F011C17B8473940B850430EE
:1013900038F021E030E030939A082093990814C483
:1013A00021013CEE430E511CC888D988E12CF12C58
:1013B00087012F81388549855A8561E0C1010E94E6
:1013C0002607EE88FF88088D198DE114F1040105C8
:1013D000110561F0F201E80FF91F22E3208324E0F8
:1013E0002183E282F382048315830696F201E80FDB
:1013F000F91F27E3208323E02183FF24F394F28263
:10140000238326E024838C010B5F1F4FE2EBF9E07E
:1014100001900020E9F7AF01435B5940141615060F
:10142000A4F4F201E00FF11F8CE0808341837A0184
:10143000FF24A70162EB79E0CF0102960E941E65AE
:10144000A7014E5F5F4F040F151FF201E00FF11F60
:1014500089E3808382E0818380E492E0082E892FF3
:10146000902D938382830C5F1F4F91014FEF5FEFAD
:10147000BA01C4010E94ED0597FDA6C3EB80FC8074
:101480000D811E8191014F81588569857A85C4013E
:101490000E941C06181619060CF07BC000919E08CD
:1014A00010919F08BC01C1010E9478047C01009743
:1014B00009F450C0DC018C91823009F046C001155E
:1014C000110509F446C08091770990917809A0919F
:1014D0007909B0917A0940917B0950917C0960911A
:1014E0007D0970917E09482359236A237B23452B6C
:1014F000462B472BA9F0F801418152816381748109
:1015000084179507A607B70729F1F7014181528192
:101510006381748184179507A607B707D9F411C0B2
:10152000D70195964D915D916D917C919897F801B9
:1015300085A196A1A7A1B0A584179507A607B7070F
:1015400020F4C8010E942D0404C0C7010E942D048C
:1015500001C0870110939F0800939E08012B09F496
:101560008DCF8091910890919208A0919308B091AD
:101570009408803E9E42A105B10570F010EAE12E6C
:101580001FE0F12E00E010E0EB82FC820D831E8351
:1015900075CF892B09F018C380919E0890919F0800
:1015A000892B09F462C383E052C1833029F57B841F
:1015B00073940B85043020F011E010939B0855C301
:1015C000E0919E08F0919F0829892F9338893F93D5
:1015D000848D8F93838D8F93828D8F93818D8F9345
:1015E00084818F9383818F9382818F9381818F9365
:1015F000A12CB12C6501BBC1843009F069C07B848A
:10160000739403E0071540F411E010939B081E8AC1
:101610001F8A188E198E29C329892F9338893F93E1
:101620001F921F921F921F92498D4F93588D5F9367
:101630008F898F939E899F93A12CB12C6501EF8098
:10164000F88409851A8591014FEF5FEFBA01C40153
:101650000E9470070FB6F894DEBF0FBECDBF97FD96
:10166000B3C2EB80FC800D811E8191014F815885B2
:1016700069857A85C4010E941C0697FDA5C2009762
:1016800009F4F3C2BC01C1010E9478048C010097E7
:1016900009F4EBC2FC018081853071F480919E08D1
:1016A00090919F080E942D0410939F0800939E081C
:1016B00085E080939B0898C1863009F0CEC2FF2454
:1016C000F394F0929B081E8A1F8A188E198EC5C249
:1016D000853009F045C0109291081092920810923E
:1016E00093081092940885E998E00E946D52E09169
:1016F0009E08F0919F08458D568D678D70A1D7018A
:10170000C6010A891B892C893D89801B910BA20B7C
:10171000B30B84179507A607B70710F086E097C0AC
:101720008A899B89AC89BD89840F951FA61FB71F25
:101730009C01AD012C193D094E095F09283319E8B8
:10174000310711E44107510520F027E339E841E46E
:1017500050E0A8EEB3E00E945E63AB01BC0175C22D
:10176000863009F09FC000919E0810919F08D80113
:1017700091962D913D914D915C9194972C873D8749
:101780004E875F874A885B886C887D88420E531E2F
:10179000641E751E4C185D086E087F086B817C8185
:1017A0008D819E8128EE33E040E050E00E94F76298
:1017B000421653066406750650F4A8EEB3E0A30182
:1017C00092010E945E636B837C838D839E832A8952
:1017D0003B894C895D89C21AD30AE40AF50A8C85D3
:1017E0009D85AE85BF85C816D906EA06FB0670F54D
:1017F000D8011196AC9011971296BC90129713963F
:10180000CC9013971496DC90149759964D915D9156
:101810006D917C915C97B989BF93E889EF931F9292
:101820001F921F921F92DF92CF92BF92AF92EF80D2
:10183000F88409851A859101C4010E9470070FB6CA
:10184000F894DEBF0FBECDBF97FF04C087E0809342
:101850009B08FFC17B847394EB80FC800D811E810B
:1018600091014F81588569857A85C4010E941C06C3
:1018700097FDAAC1009709F4F8C1BC01C1010E94FB
:1018800078048C01009709F4F0C1DC012C9125301B
:1018900009F49CC0263009F0E0C187E080939B08E2
:1018A000712CDBC1873009F0B0C000919E08109107
:1018B0009F08D80195962D913D914D915C919897F7
:1018C0002C873D874E875F874A885B886C887D8838
:1018D000420E531E641E751E4C185D086E087F086C
:1018E0006B817C818D819E8128EE33E040E050E069
:1018F0000E94F762421653066406750650F4A8EE7D
:10190000B3E0A30192010E945E636B837C838D83AD
:101910009E832A893B894C895D89C21AD30AE40ACD
:10192000F50A8C859D85AE85BF85C816D906EA0661
:10193000FB0618F010929B088CC17B847394D8012D
:101940001196AC9011971296BC9012971396CC906A
:1019500013971496DC90B989BF93E889EF931F928F
:101960001F921F921F92DF92CF92BF92AF92EF8091
:10197000F88409851A8591014FEF5FEFBA01C40120
:101980000E9470070FB6F894DEBF0FBECDBF97FD63
:101990001BC1EB80FC800D811E8191014F81588518
:1019A00069857A85C4010E941C0697FD0DC10097C8
:1019B00009F45BC1BC01C1010E9478048C0100974D
:1019C00009F453C1DC012C912530B9F480919E08B3
:1019D00090919F0828A30E942D0410939F080093C4
:1019E0009E0828A120939B08EA8CFB8C0C8D1D8DF2
:1019F000EA8AFB8A0C8B1D8B38C1263009F02DC179
:101A0000FF24F394F0929B0828C1883009F08FC01E
:101A10007B8473940B85043008F0D6C021011CEE42
:101A2000410E511CAE8DBF8D1B96ED90FD900D911A
:101A30001C911E97C12CD12C2F81388549855A8540
:101A400068E0C1010E942607F201E80FF91F27E3B1
:101A5000208323E02183B1E0B283238326E0248323
:101A60008C010B5F1F4FE2EBF9E001900020E9F7DA
:101A7000AF01435B5940A1F0F201E00FF11F8CE090
:101A8000808341837A01FF24A70162EB79E0CF01D3
:101A900002960E941E65A7014E5F5F4F040F151F3F
:101AA000F201E00FF11F89E3808382E0818380E40B
:101AB00092E0082E892F902D938382830C5F1F4F15
:101AC00091014C855D856E857F85C4010E94ED0581
:101AD00097FD70C0EB80FC800D811E8191014F81CC
:101AE000588569857A85C4010E941C061816190656
:101AF000ACF4BC01C1010E9478048C01009771F024
:101B0000DC018C91853061F480919E0890919F0852
:101B10000E942D0410939F0800939E0800E010E09F
:101B200010929B080115110509F097C09EC08930DD
:101B300009F070C0E0919E08F0919F083097C9F1BC
:101B4000BB85BB2319F07B2E739434C0418C528C1F
:101B5000638C748CE180F28003811481C12CD12CC0
:101B60002F81388549855A8567E0C1010E94260783
:101B7000411451046104710471F0F101E451FF4F0B
:101B8000E80FF91F26E3208324E021834282538259
:101B90006482758206968C0191014C855D856E8507
:101BA0007F85C4010E94ED0597FF11C077247394CF
:101BB00001C07B84EC84FD840E851F85E122E02238
:101BC000EF20E09409F051C010929B084EC0EB80CA
:101BD000FC800D811E8191014F81588569857A8530
:101BE000C4010E941C0697FF03C010929B0839C0D5
:101BF0000097B9F1BC01C1010E9478048C010097E3
:101C000081F1DC018C91853011F0863021F5109244
:101C10009B0821C0811128C080919E0890919F0847
:101C20000E942D0410929F0810929E081092910815
:101C300010929208109293081092940885E998E007
:101C40000E946D5240E050E0BA0187E998E00E949E
:101C50006051712C0AC077247394C8010E942D042E
:101C600004C07724739401C07B847B862BCAAFEFBA
:101C7000BFEFB98BA88B02CB20919B08253029F4AC
:101C80009A01AB0169E00C94B10683E090E0909377
:101C90009A08809399088FEF9FEF08956F927F9233
:101CA0008F929F92AF92BF92CF92DF92EF92FF926C
:101CB0000F931F93CF93DF9300D01F92CDB7DEB762
:101CC0003C014B0129833A834B835C830E94805201
:101CD0005C0129813A814B815C81009769F0FC01AC
:101CE0008385833049F4078510890115110521F09A
:101CF000F8018081863019F081E190E04DC08114B7
:101D00009104B1F0F401908181818923928189232A
:101D10009381892394818923958189238F3F41F081
:101D200086E0A1E7B9E001900D928A95E1F718C02D
:101D3000F80195818681892B9781892B9085892B44
:101D40009185892B9285892B59F4C30129833A8384
:101D50004B835C830E9488235C814B813A8129817B
:101D6000A0917109F0917209E09173097091740961
:101D700060917509909176098A2F8F2B8E2B872B76
:101D8000862B892B39F0FA23EF237E2367239623B2
:101D90009F3F39F482E090E090939A0880939908ED
:101DA000C9C086E0E1E7F9E0D801159601900D92EF
:101DB0008A95E1F764EF71E080E090E029833A834F
:101DC0004B835C830E948750F80113861486158626
:101DD0001686C0907B09D0907C09E0907D09F09038
:101DE0007E09C38AD48AE58AF68A80918309909114
:101DF0008409A0918509B09186098C219D21AE218D
:101E0000BF2129813A814B815C81892B8A2B8B2BC5
:101E100071F140EE5EE260E070E0C3010E943C0EB2
:101E20002091830930918409409185095091860958
:101E300020937709309378094093790950937A0970
:101E4000A0907F09B0908009C0908109D09082094C
:101E5000E0907B09F0907C0900917D0910917E094A
:101E600061E779E0C3010E9492224C0166C061E003
:101E7000C3010E94B1064C01892B09F05BC080911F
:101E80009B08853031F5E0919E08F0919F08C5844C
:101E9000D684E784F08805811681278130854181C9
:101EA000528163817481C5010E948121E0919E0865
:101EB000F0919F08E588F6880789108D218932897D
:101EC0004389548960E070E080E090E00E94B10FA7
:101ED00034C0F80183859485A585B685892B8A2B26
:101EE0008B2B59F520917709309178094091790928
:101EF00050917A09E0907B09F0907C0900917D096E
:101F000010917E09DA01C9018E219F21A023B123FE
:101F1000892B8A2B8B2B71F0A0907F09B0908009C0
:101F2000C0908109D090820961E779E0C3010E94E5
:101F3000922203C088248A94982CC4010F900F9099
:101F40000F900F90DF91CF911F910F91FF90EF9025
:101F5000DF90CF90BF90AF909F908F907F906F90C9
:101F600008954F925F926F927F928F929F92AF925D
:101F7000BF92CF92DF92EF92FF920F931F93CF9376
:101F8000DF936C01EB0129013A014701580180916F
:101F9000550990915609009731F00E940146109220
:101FA0005609109255098091570990915809009748
:101FB00031F00E9401461092580910925709C1143D
:101FC000D10439F0C6010E940646909356098093C9
:101FD0005509209739F0CE010E9406469093580982
:101FE000809357094092590950925A0960925B09AF
:101FF00070925C0980925D0990925E09A0925F09DF
:10200000B0926009DF91CF911F910F91FF90EF90F7
:10201000DF90CF90BF90AF909F908F907F906F9008
:102020005F904F900895FC01CF012191222369F028
:10203000203211F02930C1F7FC011192CF0121911A
:102040002032E1F32930D1F308950895EF92FF9201
:102050000F931F93CF93DF937C01009729F1FC012D
:1020600001900020E9F731978F01081B190BE1F06F
:10207000CBE0D2E0688179816115710591F0FB01B7
:1020800001900020E9F73197E61BF70BC8018E1B82
:102090009F0B8E0D9F1D0E942E65892B41F0269669
:1020A000E9CF8BE092E004C081E192E001C0CE0173
:1020B000DF91CF911F910F91FF90EF9008950F93B3
:1020C0001F93CF93DF9300D01F92CDB7DEB7182FA9
:1020D000092F61157105C1F07F936F9381E994E039
:1020E0009F938F930F931F9329833A834B835C8332
:1020F0000E9437400F900F900F900F900F900F900D
:102100005C814B813A81298157FD11C05F934F93C8
:102110003F932F938BE794E09F938F930F931F939D
:102120000E9437400FB6F894DEBF0FBECDBF612FBF
:10213000702F8EE694E00E944740612F702F84E656
:1021400094E00F900F900F900F90DF91CF911F911F
:102150000F910C9447400F931F93CF93DF93CDB70C
:10216000DEB728970FB6F894DEBF0FBECDBF182F8D
:10217000092F2F8338874D835E830E94B04B9F9336
:102180008F9338853F932F812F935E815F934D818D
:102190004F931F9281E08F931F928F9384EA94E074
:1021A0009F938F930F931F930E9437408091A008B5
:1021B0000FB6F894DEBF0FBECDBF80FF1EC080E01B
:1021C00090E00E94CF4369837A838B839C83CE0106
:1021D00001960E940C420E9411189F938F9383E9ED
:1021E00095E09F938F930F931F930E94C93F0F9089
:1021F0000F900F900F900F900F9028960FB6F894B5
:10220000DEBF0FBECDBFDF91CF911F910F9108951B
:10221000AF92BF92CF92DF92EF92FF920F931F93F4
:10222000CF93DF93F82EE92E6B01EA01413981E06B
:102230005807C9F054F44033E1E05E0701F140393A
:102240005140D1F40FEA15E01CC0443F81E058072B
:1022500069F0453F91E0590761F04439514061F41C
:1022600008EC15E00EC00BEB15E00BC002ED15E01D
:1022700008C001EE15E005C00BED15E002C002EA52
:1022800015E09801AE01B6018F2D9E2D0E94AB1076
:10229000C139F1E0DF0741F5F601A084B1846FE2B6
:1022A00070E0C5010E948D656C01009719F0FC017A
:1022B000108204C085E5A82E85E0B82EBF92AF92AB
:1022C0008FE394E09F938F93EF92FF920E943740A9
:1022D0000F900F900F900F900F900F90C114D1049A
:1022E00019F08FE2F60180832FEF3FEFA90161EF34
:1022F00075E08F2D9E2D0E945F101F930F93DF932B
:10230000CF931F930F93DF93CF938CEF93E09F9323
:102310008F93EF92FF920E943740EDB7FEB73C9645
:102320000FB6F894FEBF0FBEEDBFDF91CF911F91A6
:102330000F91FF90EF90DF90CF90BF90AF900895F6
:102340000E942610FC018281938108950E9426102C
:10235000FC01848195810895DF92EF92FF920F93A3
:102360001F93CF93DF9300D0CDB7DEB78C011B82D4
:102370007C0180E2D82EF8018081882309F18B321C
:1023800019F4F701D08216C0853291F4F8018181E9
:10239000898382818A8340E150E060E070E0CE0171
:1023A00001960E947163F70160830E5F1F4F02C0A8
:1023B000F70180830F5F1F4FFFEFEF1AFF0ADBCF9C
:1023C000F70110820F900F900F90DF91CF911F9126
:1023D0000F91FF90EF90DF900895EF92FF920F938F
:1023E0001F93CF93DF93EC01EA84FB84E114F104A3
:1023F00009F47EC081E090E09F8B8E8B8701F7010E
:102400008191882341F08632D9F78E899F89019680
:102410009F8B8E8BF5CF8E899F89880F991F880F90
:10242000991F0E94F3459D8B8C8B009719F41F8A8E
:102430001E8A5EC0FC01F182E0821382128222E0D9
:1024400030E0F80181918F018823C1F08632C9F70D
:10245000C901880F991FEC89FD89E80FF91F1183C5
:1024600000834C895D89FA01E80FF91F13821282FB
:10247000F801319710822E5F3F4FE3CF00E010E06C
:10248000E12CF12C8E899F89E816F9068CF58C8950
:102490009D89FC01E00FF11F0190F081E02DDF012B
:1024A00021912223B9F02D33D1F798012E5F3F4FB0
:1024B000FC01E20FF31FAD014F5F5F4F518340837B
:1024C0001C928C899D89FC01E20FF31F8081918110
:1024D0000E94AC11EC89FD89E00FF11F8081918190
:1024E0000E94AC11FFEFEF1AFF0A0C5F1F4FCACF1B
:1024F000DF91CF911F910F91FF90EF9008952F9250
:102500003F924F925F926F927F928F929F92AF9283
:10251000BF92CF92DF92EF92FF920F931F93CF93D0
:10252000DF93CDB7DEB76F970FB6F894DEBF0FBE5F
:10253000CDBF4C011B8A1A8A212C312CC1010E946B
:102540002C1664E270E081E090E00E94D7451C0107
:10255000009709F4CEC2EBE0F0E0DC011396FC93A7
:10256000EE9312972A893B892115310519F0C9018B
:102570000E94014680E091E00E94F3459B8B8A8B8C
:10258000009709F4B6C2A40160E071E00E94993F8F
:10259000892B09F4AEC26DE070E08A899B890E94A4
:1025A0004C65009711F0DC011C926AE070E08A89AA
:1025B0009B890E944C65009711F0FC01108280E01D
:1025C00091E00E94F3457C01892B09F492C29101AC
:1025D0002E5E3F4F3D8B2C8B265F3F4F3F8B2E8BCC
:1025E0002E5F3F4F398F288F205131093B8F2A8F23
:1025F000225031093D8F2C8F2C5F3F4F3F8F2E8F04
:10260000310132E2630E711CC4010E94673F8C01EC
:102610008D309105C9F30A97E1F4C7010E94014684
:102620008A899B890E9413108C010E9413107C01DF
:102630000E9413106BEF75E08A899B890E942E65BA
:10264000892B09F0CEC081E090E0F1019183808375
:10265000E4C0A12CB12C512C4A2C0F3F8FEF18074E
:1026600021F4C7010E94014644C20A30110509F451
:1026700054C00A33110519F5852D90E0FC01EE0FC9
:10268000FF1F8E0F9F1FFC01E651FC4F80818A11B6
:1026900044C04EC0C8010E94DA64D6011196ED9183
:1026A000FC911297EA0DFB1D2081022E000C330BCA
:1026B0002817390799F05394BAE05B1679F0C52CC6
:1026C000D12CC601880F991F8C0D9D1DDC01A651D0
:1026D000BC4F6D018C91481670F7DCCFC4010E948D
:1026E000673F8C010D97D1F3E0E1AE16B10431F0F4
:1026F000FFEFAF1ABF0A2AE05212AECF0F3F3FEFF3
:10270000130709F4AECF0115110509F486CF0A337A
:10271000110519F48AE058120BC0C4010E94673FEA
:102720008F3FAFEF9A0709F46FCF0A97B1F76CCFDD
:10273000A40160E071E0C7010E94993F892B09F470
:1027400090CF6AE070E0C7010E944C65009759F491
:10275000C4010E94673F8F3FBFEF9B0709F454CF2E
:102760000A97B1F751CFFC011082E816F90620F460
:1027700082918D3009F41082852D90E08A30910588
:1027800008F042CFFC018827EA59FF4F8F4F0C9485
:1027900038638301D1C10E8D1F8DCEC1C7010E9448
:1027A0009F64D10114966D937D938D939C9317979D
:1027B0002BCF0C8D1D8DC0C10A8D1B8DBDC1088D09
:1027C000198DBAC1C7010E948917F101608F718FFD
:1027D000828F938F19CF0E891F89AEC10C891D89F5
:1027E000ABC16FEF75E08A899B890E942E65892BAA
:1027F00019F4E3E0F0E00AC064E076E08A899B899E
:102800000E942E65892B31F4E2E0F0E0D101ED93D6
:10281000FC9303C045EF51E006C0D8018C918111B3
:1028200007C040E951E0B101C4010E94081161C133
:10283000F70180818823A9F369E076E0C7010E944F
:102840002E65892B39F48AE090E0D10113969C9390
:102850008E93129781E090E0F10191A380A36FE342
:1028600070E0C8010E944C65009771F0DC011D9278
:10287000CD010E940646F10193878287892B09F4D6
:1028800038C1C1010E94ED11C8010E940646D10164
:1028900019969C938E931897009709F42AC10E9469
:1028A0009519892B19F440E951E044C0C1010E94F7
:1028B0008318892B19F041E951E03CC0B101C401F2
:1028C0000E942919892B09F00BC10BE612E0A12CFB
:1028D000B12CEE24EA94FE2CD8016D917D918D01EE
:1028E0006115710509F1F101808591850E94CB1573
:1028F0005C01009719F444EF51E01CC060E070E8FF
:102900000E947F3C7C018F3FFFEF9F0749F00E94B0
:10291000853E672B682B692B91F4C7010E94263CEA
:10292000C5010E940146D8CFBFEFEB16FB0639F474
:1029300044E951E0B101C4010E940811D1C0C501B0
:102940000E94A0118C01C5010E94A6116C01892B67
:1029500009F046C08091A00881FF42C0BE016F5FB0
:102960007F4FC5010E94E03A892B49F48A859B85F7
:10297000AC85BD858E879F87A88BB98B08C082E107
:1029800096E00E9489176E877F87888B998BF1016B
:10299000808D918DA28DB38D0097A105B105B1F009
:1029A0004A855B856C857D8584179507A607B707E3
:1029B0006CF0C7010E94263C40E351E0B101C40124
:1029C0000E940811C5010E9401468AC0CE010E96E0
:1029D0000E940C420E9411180E9406463C0102C04F
:1029E000612C712CC5010E9401462BE236E048ECB7
:1029F00050E0B101C4010E94AB106114710499F060
:102A00007F926F92AEE2B6E0BF93AF939F928F92A8
:102A10000E94C93FC3010E9401460F900F900F9082
:102A20000F900F900F90C7010E94853E2B013C0133
:102A3000C114D10491F02FEF3FEFA901B801C401F7
:102A40000E945F1020916109309162098101A20109
:102A5000B701C401F601199540C09B01AC01B80152
:102A6000C4010E945F10D1018D919C910397A9F13F
:102A700080E092E00E94F3456C01892B71F1A12C5A
:102A800082E0B82E411451046104710481F04114B4
:102A9000B2E05B06610471040CF45201A501B601B9
:102AA000C7010E949D3D8C011816190624F0C6012D
:102AB0000E94014612C09401AC0161E070E0C601C1
:102AC0000E94D93F892B99F3012E000C220B330B66
:102AD000401A510A620A730AD5CFC7010E94263CE8
:102AE000C4010E94713EF10180A191A1019709F0FA
:102AF00025CDC1010E942C162A893B89211531055B
:102B000089F1C9016F960FB6F894DEBF0FBECDBF35
:102B1000DF91CF911F910F91FF90EF90DF90CF90B9
:102B2000BF90AF909F908F907F906F905F904F90ED
:102B30003F902F900C940146D8018D919C91892B48
:102B400009F062CDF701CF0121912032E1F3293064
:102B5000D1F30E940646D8018D939C93892B09F0EE
:102B600053CD7FCD6F960FB6F894DEBF0FBECDBFAD
:102B7000DF91CF911F910F91FF90EF90DF90CF9059
:102B8000BF90AF909F908F907F906F905F904F908D
:102B90003F902F900895AF92BF92CF92DF92EF9225
:102BA000FF920F931F93CF93DF935C017B01C09043
:102BB0006109D0906209C114D10421F48FE7C82EB5
:102BC00087E0D82EE50109900020E9F72197CA197E
:102BD000DB09D6010D900020E9F7F70101900020F4
:102BE000E9F73197EE19FF09CE018C199D098A0F7B
:102BF0009B1F8E0F9F1F0E94F3458C01009701F1D0
:102C0000B6010E946065B501C8010E944165F701E7
:102C100080818823A9F0209761F0CA0DDB1D2197E0
:102C200091E080E028812F3209F090E0692F782F21
:102C300002C061E070E06E0D7F1DC8010E94416519
:102C4000C801DF91CF911F910F91FF90EF90DF901E
:102C5000CF90BF90AF900895CF93DF93EC01892B75
:102C600009F441C088859985009711F00E940146BA
:102C70008A859B85009711F00E9401468C859D8571
:102C8000009711F00E9401468E859F85009711F0F4
:102C90000E94014688899989009711F00E94014697
:102CA0008A899B89009711F00E9401468C899D8931
:102CB000009711F00E9401468C8D9D8D009711F0B8
:102CC0000E9401468E8D9F8D009711F00E94014653
:102CD0008AA19BA1009711F00E940146CE01DF91CD
:102CE000CF910C940146DF91CF910895FC01CF0163
:102CF00021912032E1F32930D1F30895CF93DF936E
:102D0000FB01118210826AE0DC012C9130E020533B
:102D100031092A303105A8F420813181629FA00158
:102D2000639F500D11245183408301962C91022EF4
:102D3000000C330B20533109240F351F31832083BE
:102D4000E3CFDF91CF910895CF93DF93EB010E9402
:102D50007E1628813981263431051CF42C593F4FC9
:102D600006C02D3647E0340724F02C56374039830F
:102D70002883DF91CF9108950F931F93CF93DF9313
:102D8000FC01DB018081813489F49F012F5F3F4F7B
:102D900081818F7D803519F483E090E002C087E067
:102DA00090E08D939C93F901EF0149C0843419F4AC
:102DB0008BE090E039C0863419F481E090E034C0B3
:102DC0008A34C1F4CF0101962181322F3F7D313405
:102DD00019F41D921C921DC0222349F0CF010296C6
:102DE00022812F7D2C3419F426E030E010C025E03C
:102DF00030E00DC08D34A1F48181813661F4CF01C2
:102E0000029622812F7D223541F422E030E02D937D
:102E10003C93FC01C9CFCF01019624E030E0F7CF0D
:102E20008E3429F48AE090E08D939C93BDCF8F344B
:102E300019F489E090E0F8CF88E090E0F5CF8E01BA
:102E40002196F801808190E00E94C964892BB9F72E
:102E5000C801DF91CF911F910F910895CF92DF921A
:102E6000EF92FF920F931F93CF93DF937A01890123
:102E70000E947E16EC01DC2ECD2E8991811107C0B7
:102E8000B7018D2D9C2D0E94BC16FC010CC090E05A
:102E90000E94C964892B79F3F3CF30E020533109C4
:102EA0002A30310520F0CF0121912111F6CFB80150
:102EB000DF91CF911F910F91FF90EF90DF90CF9016
:102EC0000C94A4160F931F93CF93DF93EA0189010B
:102ED0000E947E16FC0120812A33A1F4BE010196D6
:102EE0000E947E16FC0120812A3341F4B80101962C
:102EF000DF91CF911F910F910C947E16F8011182F2
:102F0000108202C019821882DF91CF911F910F9118
:102F10000895DF92EF92FF920F931F93CF93DF9369
:102F2000CDB7DEB762970FB6F894DEBF0FBECDBF48
:102F30009E012F5F3F4F790122E1F70111922A95FF
:102F4000E9F721E030E038872F830E9476168C0164
:102F5000FC01808190E00E94C964892B69F0F8012E
:102F6000CF012191322F3F7D21F40E9476168C01F2
:102F700003C02930A9F7F9CFF801D0808D2D90E05A
:102F80000E94C964892BA9F0BE01675F7F4FC80109
:102F90000E94BC160E947616BE01695F7F4F0E9498
:102FA0007E160E947616BE01655F7F4F0E94A416B2
:102FB0000EC0DD20C1F09E01255F3F4FAE01475F8F
:102FC0005F4FBE01695F7F4FC8010E942E170E94AC
:102FD00076169701AE014D5F5F4FBE016B5F7F4F6D
:102FE0000E9462178C01C8010E94761669EE77E094
:102FF0000E945765892B21F4C7010E94C74303C073
:10300000C7010E94CB4362960FB6F894DEBF0FBE95
:10301000CDBFDF91CF911F910F91FF90EF90DF9087
:103020000895FC0181818F9380818F9383818F9399
:1030300082818F9385818F9384818F9382859385FD
:103040008459984F9F938F93A085B185AA0FBB1F7A
:10305000A85FBB4F11968C9111978F938C918F9392
:1030600087818F9386818F930484F585E02DEE0F01
:10307000FF1FE05EFB4F81818F9380818F938DEEE8
:1030800097E09F938F9384EA98E09F938F930E9499
:1030900099408DB79EB742960FB6F8949EBF0FBE6B
:1030A0008DBF84EA98E00895EF92FF920F931F93EB
:1030B000CF93DF938C017B01C091C408D091C508E8
:1030C0002097C9F00115110541F06A817B81C80183
:1030D0000E9498650817190751F4E114F10459F09A
:1030E0006C817D81C7010E945765892B21F0099071
:1030F000D881C02DE5CFCE01DF91CF911F910F91E7
:10310000FF90EF900895CF92DF92EF92FF920F938E
:103110001F93CF93DF937C01FC01008511856FE243
:1031200070E0C8010E948D65EC01892B11F01882B6
:1031300002C005E515E060E070E0C8010E94541887
:10314000892B31F1F701C088D188C114D10419F15C
:1031500046E050E069E578E0C6010E947F65892B72
:10316000D1F4C60106960E949D3AF70160897189E3
:103170006A5F7F4FC8010E94541821E030E0892B1C
:1031800011F020E030E088279927821B930B05C0BF
:1031900080E090E002C08FEF9FEF209711F02FE2C8
:1031A0002883DF91CF911F910F91FF90EF90DF90D7
:1031B000CF900895CF92DF92EF92FF920F931F93DB
:1031C000CF93DF937C01EB016A018881998101979C
:1031D000029718F045EF51E01AC00091C80810910D
:1031E000C9080115110589F0688579856C0D7D1D6B
:1031F000D80112968D919C9113970E942E65892B70
:1032000091F0F80100811181ECCF44E951E0BE0159
:10321000C701DF91CF911F910F91FF90EF90DF9049
:10322000CF900C940811D8011496ED91FC9115974C
:10323000BE01C7011995892B19F044EF51E0E7CF82
:10324000DF91CF911F910F91FF90EF90DF90CF9082
:103250000895CF92DF92EF92FF920F931F93CF9337
:10326000DF936C017B01E091C608F091C7083097AD
:1032700069F4E0E6F8E00AC0DE018D010C1B1D0BCD
:103280008D91811110C00115110581F48081882371
:1032900011F1EF01FE019E012F5F3F4F88818B33BB
:1032A00059F7E901F7CF8B3341F7EDCFA801BE0104
:1032B000F701808591850E946765892B41F4A801FB
:1032C000B701C6010E94DA1881E090E006C0FE0155
:1032D000E00FF11FDBCF80E090E0DF91CF911F91F5
:1032E0000F91FF90EF90DF90CF90089590ED980FA1
:1032F0009A3028F4082E000C990BC09708959FE986
:10330000980F963030F4082E000C990B87559109D0
:1033100008959FEB980F963028F4082E000C990B17
:10332000C79708958FEF9FEF08958F929F92AF9266
:10333000BF92CF92DF92EF92FF920F931F93CF93A2
:10334000DF938C01FC01B080FFE2BF123EC06C0134
:10335000EC018FE2A82E7E019FEFE91AF90A89811C
:103360008823C1F08532D1F48A810E9476194C01FC
:1033700097FD14C08B810E94761997FD0FC07E01C6
:1033800023E0E20EF11CE0E18E9E800D11248B8380
:10339000811104C0F6011082C80119C0F7018081B3
:1033A0008C3509F4A082F701908182ED8B0D82307B
:1033B00020F482ED890F823030F0B92EF60190832F
:1033C000C60101966C01E701C6CF80E090E0DF9175
:1033D000CF911F910F91FF90EF90DF90CF90BF9012
:1033E000AF909F908F9008956B307105C9F06C304D
:1033F000710519F06A30710501F5FC01E65BFF4FBC
:10340000DC01A25BBF4F208131818D919C91B9017C
:10341000681B790BCB01092E000CAA0BBB0B05C056
:10342000FC0187859089A0E0B0E0FA018083918358
:10343000A283B38380E090E008958FEF9FEF08951B
:10344000CF92DF92EF92FF920F931F93CF93DF9370
:10345000EC018B017A016901AB0141705527B7017D
:103460008B5A9F4F0E94473DA801427055279601F5
:10347000B701CE01CE960E94473D8D898430D9F4A4
:10348000FE01E65BFF4F808191813496208131817E
:10349000821B930B31E020E0181619060CF030E087
:1034A000832F922F4F8558892B893C8942175307C8
:1034B00020F4826002C080E090E02D89222331F068
:1034C0002D89253019F02D892B3011F483E090E0FF
:1034D00080239123DF91CF911F910F91FF90EF9067
:1034E000DF90CF9008950F931F93CF93DF93EC015C
:1034F0008C010F5A1F4FF80180819181009749F08C
:10350000FC0120813181F801318320830E94105316
:10351000F2CF8AAD9BAD009741F0FC012081318153
:103520003BAF2AAF0E941053F4CFC95ADF4F8881B6
:103530009981009741F0FC012081318139832883F2
:103540000E941053F4CFDF91CF911F910F910895F6
:10355000CF93DF93EC010E94731A8F859889892B92
:1035600021F089899A890E940146CE01DF91CF918D
:103570000C9401468F929F92AF92BF92EF92FF926E
:10358000E090CA08F090CB08F7013097E9F0A28DDF
:10359000B38DA817B907A1F4848C958CA68CB78C31
:1035A00082169306A406B50659F4A0A1B1A1A617E8
:1035B000B70731F4A589AA2319F0A589AB3099F48E
:1035C0000280F381E02DE1CFF701309761F025898A
:1035D000213029F4228D338D8217930721F0028048
:1035E000F381E02DF2CFCF01FF90EF90BF90AF902D
:1035F0009F908F900895CF93DF938091CC08811195
:1036000010C06BEC73E286E00E940120892B09F068
:1036100059C00E941729892B09F054C081E080937A
:10362000CC0869E770E081E090E00E94D745EC01AA
:10363000892B09F447C01D8A84E08C838BE19EE1CD
:103640009E838D8382E19CE198878F838BED9CE143
:103650009A87898784EF99E19C878B8780E29AE13A
:103660009E878D870E94734F6BA37CA38DA39EA31F
:103670006FA378A789A79AA76BA77CA78DA79EA7FA
:10368000FE01E85BFF4F80E99CE0918380833496E4
:10369000918380833D9688E192E091838083369682
:1036A00028EE33E0318320832091CA083091CB0883
:1036B0003B832A839C8B8B8BD093CB08C093CA0807
:1036C000CE0102C080E090E0DF91CF910895062EF8
:1036D000672F702DFC01738F628F0C94D62F8F9201
:1036E0009F92AF92BF92CF92DF92EF92FF920F9391
:1036F0001F93CF93DF93EC017B018A010E94854DDC
:10370000209729F1E114F10419F480E090E051C010
:1037100001151105D1F36E0149E5C40ED11CF60166
:10372000808191818017910708F48C014E01F1E7A7
:103730008F0E911C5E014CE3A40EB11C8D89843068
:1037400049F0C959DF4F89E390E0998388838FEF6F
:103750009FEF2FC08BA59CA52FA138A5821B930B93
:10376000AC015695479556954795F60120813181D4
:103770004217530740F42FA938ADA901481B590B34
:103780004017510758F4F4014081518162817381DF
:10379000C5010E946051892B89F2B7CF8AA180614F
:1037A0008AA3A801B701CE010E940724892B79F6CC
:1037B000C801DF91CF911F910F91FF90EF90DF90A3
:1037C000CF90BF90AF909F908F900895CF92DF924F
:1037D000EF92FF920F931F93CF93DF937C016B01C6
:1037E0008A01C0E0D0E0C017D1077CF4A8014C1BCF
:1037F0005D0BB6016C0F7D1FC7010E946F1B181671
:1038000019062CF4C80FD91FEECFCE0102C08FEFDE
:103810009FEFDF91CF911F910F91FF90EF90DF907D
:10382000CF900895AF92BF92CF92DF92EF92FF9226
:103830000F931F93CF93DF93EC017B018A01892BB8
:1038400049F08D89843049F0C959DF4F89E390E010
:10385000998388838FEF9FEFA3C08F859889411547
:103860005105A9F4009709F497C069897A89AC01D8
:10387000CE010E94E61B29893A8997FF02C0C9013F
:1038800073C0C9010E940146188A1F8685C06B89D2
:103890007C89009749F546175707A8F0CA010E948E
:1038A000CF626C015801A81AB90AA501B701CE016F
:1038B0000E94E61B97FDCECFC114D10409F46FC05E
:1038C000EA0CFB1C01C06A018B899C890E94F345AC
:1038D0009A8B898B009709F4BDCFA601B7010E948E
:1038E0001E65D88ACF865BC0E989FA899C01240FBE
:1038F000351F2617370760F4B7018E0F9F1F0E94F0
:103900001E658F859889800F911F988B8F8747C080
:103910006B01C81AD90AA601B7018E0F9F1F0E941A
:103920001E65EC0CFD1C4B895C8969897A89CE0186
:103930000E94E61B97FD16C098012C193D096B8962
:103940007C8926173707C0F0C9010E94CF625C014D
:103950006901C81AD90AA601B701CE010E94E61B67
:1039600097FF07C089899A890E940146188A1F8695
:1039700071CFEC0CFD1C01C0590189899A89A114F1
:10398000B10429F0A501B7010E941E6502C00E9482
:103990000146B88AAF8603C080E090E001C0C8014C
:1039A000DF91CF911F910F91FF90EF90DF90CF901B
:1039B000BF90AF900895CF92DF92EF92FF920F9356
:1039C0001F93CF93DF937C016B018A014115510551
:1039D00069F0BA0181EA99E00E94B34BEC010097CB
:1039E00039F0A801B6010E94E26402C0C0E0D0E054
:1039F000A801BE01C7010E94121C8C01209729F06A
:103A0000BE0181EA99E00E941B4CC801DF91CF9171
:103A10001F910F91FF90EF90DF90CF9008952F921C
:103A20003F924F925F926F927F928F929F92AF924E
:103A3000BF92CF92DF92EF92FF920F931F93CF939B
:103A4000DF93CDB7DEB728970FB6F894DEBF0FBE71
:103A5000CDBF98878F831B018A010E94854D8F817E
:103A60009885009709F4CAC0FC018589843061F00B
:103A70008589853049F0EF81F885E959FF4F89E361
:103A800090E091838083BAC02114310419F480E05E
:103A900090E0B8C001151105D1F34F805884FAE4C5
:103AA0004F0E511C8F819885825B9F4F9E838D8323
:103AB000AF80B8849DE6A90EB11CCF80D884E3E521
:103AC000CE0ED11CF20180819181ED81FE81E080DA
:103AD000F1808E159F0581F4EF81F885858984300A
:103AE00051F6F5014081518162817381C6010E94C6
:103AF0006051892B39F3CBCF8E199F09801791071D
:103B00001CF4009721F28C01C12CD12C8F81988557
:103B10008F5A9F4F9A838983EF81F885E05BFF4F2F
:103B2000FC83EB83C016D106E0F5E981FA81608061
:103B30007180F301818892888E189F08C8018C19C2
:103B40009D0954018815990508F45C01F301678506
:103B500070896E0D7F1DA501C1018C0D9D1D0E94F8
:103B60001E65CA0CDB1CEA0CFB1CA814B904D0F2BD
:103B7000F30180819181E981FA8191838083F2014F
:103B8000808191818E199F0991838083C3010E9456
:103B90001053EB81FC81808181508083E12CF12CDA
:103BA000C1CFED81FE81F182E082EF81F8858589C8
:103BB000843039F5E85BFF4F40815181AF81B88592
:103BC000A45BBF4F2D913C91CA01800F911F281714
:103BD00039070CF4C901AF81B885A75ABF4F2D91A1
:103BE0003C91918380832417350758F028173907B3
:103BF00040F48F8198850E94772803C08FEF9FEF54
:103C000001C0C80128960FB6F894DEBF0FBECDBF25
:103C1000DF91CF911F910F91FF90EF90DF90CF90A8
:103C2000BF90AF909F908F907F906F905F904F90DC
:103C30003F902F9008950C940F1DCF93DF93EC01CC
:103C400040E050E060E070E00E94121CCE01DF9185
:103C5000CF910C944928CF93DF93EC018091CF084A
:103C600081110BC06BEA71E381E10E940120892B75
:103C700009F04DC081E08093CF08209771F50E9434
:103C8000E6502091D0083091D1082115310529F056
:103C90006E7077276160620F731F7093D108609315
:103CA000D008C091D008D091D108D06CD093D10861
:103CB000C093D008CE01082E892F902DE091630982
:103CC000F0916409309749F0228133812817390730
:103CD000B1F20190F081E02DF5CF64E170E081E078
:103CE00090E00E94D745FC01892B89F00C2ECD2F46
:103CF000D02DD383C283809163099091640991830D
:103D00008083F0936409E0936309CF0102C080E0EF
:103D100090E0DF91CF9108956F927F928F929F9262
:103D2000AF92BF92CF92DF92EF92FF920F931F93C9
:103D3000CF93DF936C014A015B013901FC0184855B
:103D40009585892B21F5A70160E880E090E00E942D
:103D50004D53EC01892B31F48CE090E0F60195870E
:103D6000848715C0A701B8018F8598890E941E65B8
:103D70008E019301B501A401C6010E94293200976A
:103D800041F4CE010E94105380E090E002C08FEF1A
:103D90009FEFDF91CF911F910F91FF90EF90DF90F8
:103DA000CF90BF90AF909F908F907F906F9008952D
:103DB0004F925F926F927F928F929F92AF92BF923B
:103DC000CF92DF92EF92FF920F931F93CF93DF93E7
:103DD000EC013B014A0159012801B701A6018C857C
:103DE0009D85892B19F08FEF9FEF56C08C819D81A7
:103DF000892B21F4CE0106960E9460518C859D8509
:103E0000892B89F7EC80FD80E114F10409F442C0AC
:103E1000D7018D919C9111979D838C831796ED917D
:103E2000FC91189784859585A685B785F3018083D5
:103E30009183A283B383D7011B96ED91FC911C97CC
:103E400080819181082E892F902DF40191838083A8
:103E500051968D919C915297982E192F481659067C
:103E600014F4942C152D28853985F901E81BF90BDC
:103E7000F987E887D7011F966D917C915097492D5E
:103E8000512FC5010E941E65C7010E941053892D44
:103E9000912F02C080E090E0DF91CF911F910F91B0
:103EA000FF90EF90DF90CF90BF90AF909F908F905A
:103EB0007F906F905F904F900895CF93DF93EC01C8
:103EC000E0916309F0916409A3E6B9E03097F1F05D
:103ED000EC17FD07B1F4888199818D939C938C81B7
:103EE0009D81009741F0FC01208131813D832C832D
:103EF0000E941053F4CFCE010E94014680E090E072
:103F000007C0DF010190F081E02DE0CF8FEF9FEF40
:103F1000DF91CF910895E0916309F09164093097A2
:103F200049F0228133812817390721F00190F0816F
:103F3000E02DF5CFCF010895009791F062307041E8
:103F400079F44115510561F02230310549F4FA0147
:103F500020813181FC013387228780E090E0089541
:103F60008FEF9FEF08950F931F93FC01892B89F02A
:103F700046875787608B718B338B228B158704871D
:103F800086819781892B41F0CF0106960E942352AA
:103F900003C08FEF9FEF02C080E090E01F910F9170
:103FA0000895CF92DF92FF920F931F93CF93DF93E9
:103FB0006C018B01DB011796ED91FC911897F18450
:103FC000C091D208D091D308209789F08A81F81641
:103FD00021F00990D881C02DF7CFEB81FC8130977B
:103FE000C1F3B801C6011995009799F702C08FEF88
:103FF0009FEFDF91CF911F910F91FF90DF90CF90B6
:104000000895EF92FF921F93CF93DF93182F7B01B8
:10401000C091D208D091D308FE01309739F0828147
:104020008117D1F00190F081E02DF7CF65E070E0CD
:1040300081E090E00E94D745FC01892BC9F01283F2
:10404000209779F4F093D308E093D20881ED9FE1B3
:1040500090938C0980938B09F482E38280E090E056
:1040600009C0D183C083F093D308E093D208F4CF82
:104070008FEF9FEFDF91CF911F91FF90EF90089509
:104080004F925F926F927F928F929F92AF92BF9268
:10409000CF92DF92EF92FF920F931F93CF93DF9314
:1040A00000D01F92CDB7DEB74B015C01270138016C
:1040B000E0906509F090660905E619E0E114F10465
:1040C00079F0F70186819781A085B1852817390796
:1040D0004A075B0728F48701D701ED90FC90EECFEB
:1040E00080E190E029833A834B835C830E94F3450F
:1040F000FC0129813A814B815C810097D1F08222B9
:104100009322A422B52282829382A482B58226833E
:104110003783408751874286538664867586D78663
:10412000C686F182E082D8018D939C9380E090E076
:1041300002C08FEF9FEF0F900F900F900F90DF91C5
:10414000CF911F910F91FF90EF90DF90CF90BF9094
:10415000AF909F908F907F906F905F904F90089559
:104160008F929F92AF92BF92CF92DF92EF92FF9287
:104170000F931F938B019C014115510531F0DA011A
:104180001D921D921D921C9213976091650970916A
:1041900066090F3FBFEF1B072B073B0781F0D901D3
:1041A000C801082E8B2FB02D092E9A2FA02D8827FD
:1041B0009927AA27B07F0097A105B04E21F4FB01F3
:1041C000309781F538C084E0FB013097A1F1C680BB
:1041D000D780E084F184C022D122E222F3228280BF
:1041E0009380A480B580C814D904EA04FB0421F0AC
:1041F0000190F081E02DE9CF4115510579F002855C
:10420000138524853585011511052105310531F00A
:10421000DA010D931D932D933C93139726853785D3
:10422000232B19F08685978508C002851385248580
:104230003585815049F680E090E01F910F91FF9005
:10424000EF90DF90CF90BF90AF909F908F900895A8
:10425000EF92FF920F931F93CF93DF93CDB7DEB70B
:1042600027970FB6F894DEBF0FBECDBF6C837D835A
:104270008E839F83FE0134968F010C5F1F4F46EEA5
:1042800058E08AE0E82E9EE2F92E808120E06E2D33
:104290000E94C36231E0320FA1E0B0E0AC0FBD1F5D
:1042A000A20FB11D905D9C93232F8111F0CF11922D
:1042B000BA01215060F081E090E08C0F9D1F820FC9
:1042C000911DDC018C91DB018D93BD01F2CFDA01F0
:1042D000A30FB11DAD014F5F5F4FFC92E017F107D7
:1042E000A1F61C9286EE98E027960FB6F894DEBFF2
:1042F0000FBECDBFDF91CF911F910F91FF90EF9037
:1043000008952F923F924F925F926F927F928F9279
:104310009F92AF92BF92CF92DF92EF92FF920F9354
:104320001F93CF93DF9300D000D0CDB7DEB71C0131
:104330002A013B0148015901C982DA82EB82FC82E1
:10434000DC011F960D90BC91A02DBE83AD83452B43
:10435000462B472B71F44090770950907809609074
:10436000790970907A09411451046104710409F4C7
:10437000BEC0ED81FE8143865486658676868114B3
:104380009104A104B10429F488248A94982CA82CBF
:10439000B12CAD81BE8153968D929D92AD92BC920F
:1043A00056976101E12CF12C8701A5019401C3010D
:1043B000B201682179218A219B210E9440208981B4
:1043C0009A81AB81BC810097A105B10551F07C01B8
:1043D0008D0120E030E0A90160E070E0CB010E9497
:1043E000402089E0F1013296A8E6B9E001900D92F3
:1043F0008A95E1F7AD81BE8115966C911597169659
:104400005C91169717964C91179718963C911897B0
:1044100019962C9119971A969C911A97862F852395
:1044200084238323822389238F3F79F0562B452BC6
:10443000342B232B922B49F086E0FD013596A1E722
:10444000B9E001900D928A95E1F740927709509278
:1044500078096092790970927A0980927B0990922A
:104460007C09A0927D09B0927E0989819A81AB81F5
:10447000BC81892B8A2B8B2BA1F480917F09909191
:104480008009A0918109B0918209482659266A269F
:104490007B2684209520A620B72089288A288B286F
:1044A00061F089819A81AB81BC8180937F0990936F
:1044B0008009A0938109B093820926960FB6F894DB
:1044C000DEBF0FBECDBFDF91CF911F910F91FF9047
:1044D000EF90DF90CF90BF90AF909F908F907F90A4
:1044E0006F905F904F903F902F900C94B5238FEF7B
:1044F0009FEF26960FB6F894DEBF0FBECDBFDF91BB
:10450000CF911F910F91FF90EF90DF90CF90BF90D0
:10451000AF909F908F907F906F905F904F903F9063
:104520002F9008954F925F926F927F928F929F92F9
:10453000AF92BF92CF92DF92EF92FF920F931F93B1
:10454000CF93DF93CDB7DEB72A970FB6F894DEBFCF
:104550000FBECDBF4B012F83388749875A8727016C
:104560003801760165010E9480529E838D830097F9
:1045700019F48FEF9FEFB5C0DC011B962C911B97B0
:104580002330B9F71F960D90BC91A02D2C912630A9
:10459000E9F5FC01258936892115310549F1AE017E
:1045A0004F5F5F4F64E070E1F90119958D819E8145
:1045B000DC015596ED91FC915697A40165E070E100
:1045C000199589819A81AB81BC81816089839A83A5
:1045D000AB83BC838D819E81DC015596ED91FC916E
:1045E0005697AE014F5F5F4F63E070E1199507C0CA
:1045F000159686E0F40101900D928A95E1F79301FA
:1046000082014F81588569857A8567C0273109F015
:10461000B0CFFC01A188B2888F819885A985BA8521
:10462000F50181A392A3A3A3B4A34114510461048F
:10463000710429F0342D252D962D872D04C03FEFD0
:104640002FEF9FEF8FEFD50199963C9399979A960C
:104650002C939A979B969C939B979C968C938114F2
:10466000910451F0F40180819181A281B381F5011F
:1046700085A396A3A7A3B0A7C5010E946D52AE0162
:104680004B5F5F4F67E171E0F501FF96808191819B
:104690000E94593C40E65AEE60E070E0C5010E947D
:1046A0006051892B09F065CFD501DC968C91DC97A0
:1046B000893009F05ECF9596CD90DD90ED90FC901D
:1046C000989799960D911D912D913C919C9791965B
:1046D0004D915D916D917C9194978D819E810E9409
:1046E00081212A960FB6F894DEBF0FBECDBFDF91B1
:1046F000CF911F910F91FF90EF90DF90CF90BF90DF
:10470000AF909F908F907F906F905F904F900895A3
:10471000CF93DF93EC0140E250E067E679E080E47C
:1047200090E00E942755892B59F4809167098032C7
:1047300039F4BE0188E699E00E945765009791F030
:1047400080E2E7E6F9E0DF011D928A95E9F786E06D
:10475000EEE2F4E0A1E7B9E001900D928A95E1F76D
:104760008FEF9FEFDF91CF91089580E280936709EB
:1047700040E250E067E679E080E490E00E9429554D
:1047800021E030E0892B11F420E030E088279927E0
:10479000821B930B0895FB01A385B485109751F1FB
:1047A000828183FF27C01C962C911C9722952F7025
:1047B000220F220F2431F0F030E085859685821794
:1047C0009307C4F0821B930B928B818B892B61F032
:1047D0001C968C911C9782958F7094E0899FA00DF8
:1047E000B11D1124B08BA78736872587CF010E9482
:1047F000AC2803C0CF010E94105380E090E00895E0
:10480000062E692F902D072E782F802D08956F92F8
:104810007F928F929F92AF92BF92CF92DF92EF9250
:10482000FF920F931F93CF93DF931F921F92CDB7E9
:10483000DEB76C017B013A01DC0192968C91452B2D
:1048400021F4982F9B7009F47DC181FF02C018E10B
:1048500001C014E1412F50E060E480E090E00E944C
:104860004D534C01009741F4F601E959FF4F87E39E
:1048700090E09183808369C1FC01A384B484D60154
:104880005A968D919C915B97F501918380839096C8
:104890008D919C91919793838283110F110F1487AF
:1048A00092968C919297877F92968C9392979B96F3
:1048B0006D917D918D919C919E970E940024D501D0
:1048C00014966D937D938D939C931797F60182A117
:1048D00084FF16C080E11D968C9382A18F7E82A3F7
:1048E000EC5BFF4F60817181828193810E94002483
:1048F000D50118966D937D938D939C931B9706C05D
:10490000F50115861086118612861386F60182A19E
:1049100081FF29C0E75AFF4F80819181082E892F9E
:10492000902D9A838983D5011D969C911D97926045
:104930001D969C93F60192A19D7F92A343A554A539
:1049400065A576A54F5F5F4F6F4F7F4F43A754A775
:1049500065A776A792E0F501948B94E0958B868B02
:104960008A81878B46C06114710439F1A30160E824
:10497000C4010E944D534C01009709F475CFA30167
:10498000B701DC011F968D919C9150970E941E6586
:10499000F60183A594A5A5A5B6A5860D971DA11D15
:1049A000B11D83A794A7A5A7B6A7D5011D968C9185
:1049B0001D9788601D968C931CC080FF1AC0F5015E
:1049C000858581608587D60192968C9192978E7F9E
:1049D00092968C9392979B968D919D910D90BC9100
:1049E000A02D0196A11DB11DF60183A794A7A5A72F
:1049F000B6A7F601E85BFF4F808191817196208117
:104A000031818217930730F4D5011F961C921E92B4
:104A10001E9706C0082E892F902DF501978786874F
:104A2000D50151961C921E92509753961C921E923D
:104A30005297F401E584F68481899289E80EF91E83
:104A40000E2CEF2CF02CD6015C962D913D914D91C2
:104A50005C915F9756966D917D918D919C91599740
:104A600006E00E94F432DC01CB01F4014585568555
:104A7000B5010E94C932D40151964D915C91529773
:104A80001F966D917C9150970E94EF32F501918BAA
:104A9000808B672821F48585837009F441C0D40197
:104AA0001D921C92D601DA96ED91FC91DB9730971E
:104AB00069F4DB969C928E92DA970E94E650F6019A
:104AC000EB59FF4F61607183608308C080819181E1
:104AD000009711F0FC01FACF918280828601055A7D
:104AE0001F4FF80180819181A281B381892B8A2B8C
:104AF0008B2B71F4D50114966D917D918D919C91C4
:104B000017970E940024F801608371838283938346
:104B100060E0C4010E94C0534C01892B09F4A4CE6B
:104B2000D6015C964D915D916D917C915F9794015A
:104B300086E00E9466348C01892B39F4C4010E94FE
:104B4000105305C000E010E002C00FEF1FEFC801D6
:104B50000F900F90DF91CF911F910F91FF90EF90E9
:104B6000DF90CF90BF90AF909F908F907F906F908D
:104B70000895AF92BF92CF92DF92EF92FF920F9380
:104B8000CF93DF936C01FC01C385D4858D8582FFB3
:104B900004C0C6010E9410536BC0F601A780B08408
:104BA000128A118A84E190E09687858788819981AD
:104BB0002A813B81398328839B838A832D8524FF27
:104BC0000FC084E08D8788859985AA85BB858C83F5
:104BD0009D83AE83BF83188619861A861B8618C0EC
:104BE0006C817D818E819F8121FF08C00E940024FD
:104BF0006F5F7F4F8F4F9F4F0E9400246887798798
:104C00008A879B871C821D821E821F8284E18D877A
:104C100080E58C871F861E861B8A1A8A198A188A45
:104C2000F601E584F6840E2CEF2CF02CF50124859A
:104C3000358546855785608971898289938906E023
:104C40000E94F432DC01CB01F60145855685BE0198
:104C50000E94EF32998B888BF501448555856685D6
:104C60007785960186E00E946634892B09F491CFFE
:104C700080E090E0DF91CF910F91FF90EF90DF9077
:104C8000CF90BF90AF900895062E692F902D072EDC
:104C9000782F802D0895FB01258536852531310536
:104CA00058F143855485FA017496DC01A75ABF4F29
:104CB0008081882309F1BF01641B750B621773079C
:104CC000DCF4813019F0823019F012C03196F0CF47
:104CD000828193819827892798276D917C911197DC
:104CE0008617970718F411969C938E933496E0CF0D
:104CF0008181E80FF11DDCCF08951F93CF93DF93DF
:104D0000EC01162F8D8990E08B30910508F057C08B
:104D1000FC018827E059FF4F8F4F0C9438636530B2
:104D200061F1663009F090C036C0633049F48AA161
:104D300082618AA34EC06330D1F3D0F16430E9F0D0
:104D40001B3009F081C03EC0643009F480C080F19E
:104D5000653009F1663009F077C08AA18160E9CF3A
:104D6000673059F020F4663009F471C06DC087EFE8
:104D7000860F833008F068C022C08AA18861D9CF2D
:104D80006B3001F18AA188618AA36A3011F15CC09D
:104D9000683009F059C08AA18161CBCF86EF860FB8
:104DA000823008F051C055C0623031F06B3051F0A4
:104DB000113009F049C04BC08AA18260BACF1B30C4
:104DC00009F045C081E090E09093F7088093F608E1
:104DD0003EC081E01D8B8823C1F040E050E060E0E0
:104DE00070E0CE010E940724892B79F0123069F41B
:104DF000FE01E959FF4F80E490E091838083CE016A
:104E000085599F4F0E94D4511FC0153039F5CE01EE
:104E10008D5A9F4F0E946D52CE0187599F4F0E941D
:104E20006D52CE0185599F4F0E946D52FE01EB5A83
:104E3000FF4F61E0808191810E94013D62E08EAD73
:104E40009FAD0E94013D0AC08FEF9FEF09C080E037
:104E5000C1CF6B3009F4B6CF8AE08D8B80E090E053
:104E6000DF91CF911F9108956F927F928F929F92C1
:104E7000AF92BF92CF92DF92EF92FF920F931F9368
:104E8000CF93DF93EC01FB013C0181E5680E711CBF
:104E9000D3018D919C91009749F0DC012D913C91BB
:104EA00011972115310519F0C901F7CFD301ED9301
:104EB000FC9321893289CE01865B9F4FDC016D9185
:104EC0007C911197620F731F6D937C930697690114
:104ED000032E000CEE08FF08DC018D909D90AD9034
:104EE000BC901397C80CD91CEA1CFB1CCD92DD9218
:104EF000ED92FC921397AE01485B5F4FDA018D9102
:104F00009C9111972817390718F01D921C9205C023
:104F1000821B930BDA018D939C938AA1982F906149
:104F20009AA320813181232B19F01182108202C0B3
:104F300088618AA38E01005B1F4FF80190819F5FFB
:104F400090839930E4F0D301ED91FC913097B9F062
:104F5000218932892F3F310509F044F4CF010E94A5
:104F60009F54F8019081981B908309C0915097300D
:104F700031F0621B730B0190F081E02DE7CF40E030
:104F800050E060E070E0CE01DF91CF911F910F9172
:104F9000FF90EF90DF90CF90BF90AF909F908F9059
:104FA0007F906F900C940724EF92FF920F931F93C2
:104FB000CF93DF93EC018B017A01FB01808991890A
:104FC000A289B3898E8B9F8BA88FB98FDA018D91BF
:104FD0009C9199A388A384859585A685B7858C8F98
:104FE0009D8FAE8FBF8FFA01648175818681978115
:104FF0000E944426FE01E05CFF4F60837183828340
:1050000093836FA778AB89AB9AAB3496DC01CB0165
:105010000196A11DB11D80839183A283B383D70123
:105020001E968D919C911F97082E892F902D98AFD9
:105030008FABF801648575858685978540E050E0E3
:105040000E94B0200097F1F0DC011F96ED91FC91D9
:1050500050978789908D8897FE01E75AFF4F2081EE
:1050600031812115310519F08217930710F49183CE
:105070008083808191812B893C898217930710F46A
:105080009C8B8B8BDF91CF911F910F91FF90EF90B5
:105090000895CF93DF93EC01892B21F10E94854D78
:1050A0008D8990E08B309105B8F4FC018827E55894
:1050B000FF4F8F4F0C9438636BE003C066E001C074
:1050C00068E0CE010E947D2680E090E00DC0C959C5
:1050D000DF4F85E290E004C0C959DF4F89E390E0DB
:1050E000998388838FEF9FEFDF91CF910895009789
:1050F00069F0FC0122A1286122A340E050E060E0B9
:1051000070E00E94072480E090E008958FEF9FEF09
:1051100008950F931F93CF93DF93E091CA08F09106
:10512000CB08CAECD8E0309791F025898281938131
:105130002B3049F49983888302811381CF010E9427
:10514000A81AF801F0CFEF012296FC01ECCFDF9115
:10515000CF911F910F910895CF92DF92EF92FF921E
:105160000F931F93CF93DF93EC01198218828091E4
:10517000120990911309892B59F4CE01DF91CF9137
:105180001F910F91FF90EF90DF90CF900C94B92575
:10519000C0908709D0908809C114D10429F4D09314
:1051A0008809C09387092CC009851A858D859E853D
:1051B000080F191F89899A89080F191FE09014098F
:1051C000F090150988EFF81AE00EF11E81EA99E0D7
:1051D0000E94924CE816F906F8F480911409909117
:1051E0001509080F191F1093150900931409F601EA
:1051F00080819181009711F06C01F9CFD183C08338
:1052000089E899E0DF91CF911F910F91FF90EF9086
:10521000DF90CF900C942352CE01DF91CF911F915C
:105220000F91FF90EF90DF90CF900C9410538091EE
:10523000120990911309892BC9F420E031E040E074
:1052400050E065E470E389E698E00E94745590931D
:1052500013098093120921E030E0892B11F020E03E
:1052600030E088279927821B930B089580E090E017
:105270000895FF920F931F93CF93DF93EC018B015F
:10528000FD88FC01E959FF4F7183608332971182D9
:1052900010823297118210828D89863018F08AE050
:1052A0008D8B01C01D8ACE010E94731ACE018D5ACA
:1052B0009F4F0E946D52CE01CC960E946D52CE013E
:1052C00087599F4F0E946D52CE0185599F4F0E9472
:1052D0006D5282E0F81203C00C33110569F0FE0133
:1052E000EB5AFF4F61E0808191810E94013D62E0B5
:1052F0008EAD9FAD0E94013D80E090E0DF91CF91A7
:105300001F910F91FF900895EF92FF920F931F93BB
:10531000CF93DF93EC01FC01EF59FF4F8081918126
:105320009C012F5F3F4F31832083089718F06CE377
:1053300070E013C02AAD3BADF901E080F1804C8DE7
:105340005D8D6E8D7F8D86E00E9466348C01892B89
:1053500051F0FBAEEAAE62E370E0CE010E94392963
:105360000FEF1FEF17C00E94E650FE01EB59FF4FF1
:10537000616071836083C15ADF4F88819981803178
:10538000F7E29F0718F4880F991F02C080E29EE49D
:1053900099838883C801DF91CF911F910F91FF906E
:1053A000EF9008954F925F926F927F928F929F92AB
:1053B000AF92BF92CF92DF92EF92FF920F931F9323
:1053C000CF93DF93EC018B015A01DB0118966D91AD
:1053D0007D918D919C911B970E9444266B017C01CD
:1053E0008BA59CA5ADA5BEA58C199D09AE09BF09CD
:1053F000B7FF04C08AA188618AA3EAC08FA198A5DB
:10540000A9A5BAA5C816D906EA06FB06C1F5F80192
:1054100064817581868197810E944426AB01BC011D
:105420008FA598A9A9A9BAA92C013D01441A550A2A
:10543000660A770A77FC11C0481759076A077B0785
:10544000F1F48BA99CA9ADA9BEA936014701681A40
:10545000790A8A0A9B0A97FC12C0D8011E968D9180
:105460009C911F97082E892F902D98AF8FAB4FA737
:1054700058AB69AB7AABCBAADCAAEDAAFEAA8FA186
:1054800098A5A9A5BAA5B701A601481B590B6A0B97
:105490007B0B77FD9DC0C816D906EA06FB0611F501
:1054A0008AAD9BAD892B09F493C0AB2809F090C05D
:1054B000F8018585837009F08BC089AD8F5F8330DB
:1054C00010F489AF85C019AECE010E94842921E075
:1054D00030E0892B11F420E030E088279927821BE7
:1054E000930B78C019AECFA2D8A6E9A6FAA6D80128
:1054F0001E968D919C911F97082E892F902D98AF05
:105500008FAB8E01055A1F4FF80180819181A281D6
:10551000B3810097A105B10549F08C199D09AE0929
:10552000BF09B7FF03C0CE010E947831D8011D9298
:105530001D921D921C9213970AAD1BAD011511050A
:1055400049F1D8011B96ED91FC911C9764817581FE
:10555000868197810E944426F80181889288092CCF
:10556000000CAA08BB08DC01CB01880D991DAA1DFF
:10557000BB1D23853485F9012585237019F001961B
:10558000A11DB11D36014701681A790A8A0A9B0AD2
:1055900097FE0EC08AAD9BAD8E010B591F4F892B14
:1055A00081F00E94E6506160F801718360830CC055
:1055B000D8018D919C919BAF8AAFC8010E94105376
:1055C000BBCFD8011D921C92CF59DF4F1982188290
:1055D00080E090E0DF91CF911F910F91FF90EF90CD
:1055E000DF90CF90BF90AF909F908F907F906F9003
:1055F0005F904F9008952F923F924F925F926F92DB
:105600007F928F929F92AF92BF92CF92DF92EF9252
:10561000FF920F931F93CF93DF9300D000D0CDB7AD
:10562000DEB79E838D838B01DB011B96CD90DC90D2
:105630001C97F601F584DC0155968C9190E08C3036
:10564000910508F078C4FC018827EA57FF4F8F4F77
:105650000C943863ED81FE8127A830AC27A130A5DA
:1056600041A552A529833A834B835C83F2FE0AC08D
:10567000CB010E94105366E370E08D819E810E94F1
:10568000392982C1F1FE18C0F601648175818681D5
:1056900097810E944426ED81FE81E05CFF4FC0802F
:1056A000D180E280F3806C157D058E059F0531F079
:1056B000C8010E94B92568C1F4FC04C0C8010E9459
:1056C000105362C1DB0151964D915C915297B60126
:1056D0008D819E810E94D229AD80BE80B4E4AB0E44
:1056E000B11CF5014080518062807380D601149610
:1056F0006D917D918D919C9117970E944426461A39
:10570000570A680A790A77FE80C0F8012189328930
:105710002115310509F465C08091F8089091F908C8
:10572000889645815681840F951F820F931F909311
:10573000F9088093F80881399C40D0F0C8010E9494
:1057400010538091F8089091F9088897D801159620
:105750002D913C911697821B930B51962D913C9164
:105760005297821B930B9093F9088093F8083CC0E2
:10577000ED81FE81E95AFF4F808091805F018114A5
:10578000910409F4F3C3F401E384F484D60114967C
:105790006D917D918D919C9117970E9444262B01CC
:1057A0003C01F70164817581868197810E944426BE
:1057B000A3019201261B370B480B590B57FF07C05B
:1057C000D5010D931C93F801918280820DC046167D
:1057D00057066806790629F05401F401808091800B
:1057E000CECFC8010E941053AD81BE8192968C919C
:1057F0009297886192968C93929740E050E060E097
:1058000070E0CD010E940724BFC0F601648175815C
:10581000868197810E944426D5014D905D906D90C0
:105820007C906415750586059705F1F0ED81FE8184
:1058300082A1886182A3EB58FF4F80819181A28170
:10584000B3810196A11DB11D80839183A283B3838F
:10585000C8010E94105340E050E060E070E08D818C
:105860009E810E9407247DC0D80151968D919C9104
:105870005297892B09F472C0B8018D819E810E94D4
:1058800034278D809E80B7E58B0E911CF40100813A
:10589000118101151105A9F0F801C384D484D50143
:1058A0004D905D906D907C90F6016481758186814C
:1058B00097810E944426461A570A680A790A77FE99
:1058C00010C08D819E818D5A9F4F0E94235261E0AE
:1058D000ED81FE81EB5AFF4F808191810E94013D55
:1058E00040C0D8018D919C911197F40191838083E0
:1058F0008091F8089091F908889715962D913C9120
:105900001697821B930B51962D913C915297821BB7
:10591000930B9093F9088093F808D60114966D9133
:105920007D918D919C9117970E944426F5014080AE
:10593000518062807380641575058605970551F462
:10594000B8018D819E810E943427D6011D968C91CD
:10595000F82A9CCFC8010E94105398CFC8010E941A
:105960001053F0FE11C0F50180819181A281B381B5
:105970000196A11DB11D80839183A283B38365E04D
:105980008D819E810E947D26AD81BE8155968C9130
:1059900055978430B9F4D7968D919C91D897281655
:1059A000390680F097968D919D910D90BC91A02D18
:1059B00029813A814B815C81281739074A075B07A7
:1059C00009F4DBC28D819E81CC960E946D5262E00B
:1059D000AD81BE81DE968D919C91DF9726960FB6A4
:1059E000F894DEBF0FBECDBFDF91CF911F910F9115
:1059F000FF90EF90DF90CF90BF90AF909F908F90EF
:105A00007F906F905F904F903F902F900C94013D4E
:105A10008F2D8671823009F073C2FB01678170851A
:105A2000A6018D819E810E94D4275DC0FF2DF0715B
:105A3000EF2EF4FE2AC0D60118966D917D918D91BE
:105A40009C911B970E944426ED81FE8183A094A027
:105A5000A5A0B6A0AB01BC01481959096A097B0988
:105A60004F5F5F4F6F4F7F4F83A594A5A5A5B6A548
:105A70000196A11DB11D88199909AA09BB098417AE
:105A80009507A607B70708F43BC2F2FE0AC0EE204E
:105A900009F451C26DE370E08D819E810E94392925
:105AA0004AC2F1FE48C2D80117966D917C911897B1
:105AB000A6018D819E810E94D427EE20A1F0F801DD
:105AC00041895289B6018D819E810E94D22964E06C
:105AD0008D819E810E947D268D819E8185599F4F5B
