:100000000C9461010C94A6010C94A6010C94A60119
:100010000C94A6010C94A6010C94A6010C94A601C4
:100020000C94A6010C94A6010C94A6010C94A601B4
:100030000C94A6010C945E0B0C94A6010C94A601E2
:100040000C94A6010C94A6010C94A6010C94A60194
:100050000C94A6010C94A6010C94A6010C94A60184
:100060000C94A6010C94C90F0C9434100C94A601A6
:100070000C94A6010C94A6010C94A6010C94A60164
:100080000C94A6010C94A6010C94A6010C94A60154
:100090000C94A6010C94A6010C94A6010C94A60144
:1000A0000C94A6010C94A6010C94A6010C94A60134
:1000B0000C94A6010C94A6010C94A6010C94A60124
:1000C0000C94A6010C94A6010C94A601F71300143D
:1000D000041408140C14201429142D143114681459
:1000E0008D14931499149F14A514B214C514E51417
:1000F000F214BB14AD15AD15AD15AD1539153D1583
:1001000041155A155E157415AD1578157F158315B3
:100110008A158E1595159915A215CB14E514D814CA
:10012000E514AD15AD15AD15AD15FE140B15131574
:1001300031150C945E130C9431140C940B150C9423
:1001400013150C94E5140C94A90C0C9410120C9437
:10015000F2140C94EE1B0C945A0D0C9433050C9471
:10016000BF150C940A130C94360C0C94880C0C9448
:1001700078150C94F8120C94020F0C942D140C9416
:10018000BB0E0C94470D0C9468140C9474150C94CD
:10019000C5140C94AD150C9408140C94CE0D0C944D
:1001A00099150C94800F0C94EB0E0C94AD0E0C94DE
:1001B00001130C94BB140C94D2130C9431150C94B1
:1001C0008A150C9495150C94F7130C94B2140C9496
:1001D000990B0C94190B0C94151C0C9429140C9469
:1001E00009080C94CF150C9441150C94290C0C940F
:1001F0005A150C9499140C945E150C94A2150C9439
:1002000093140C94C5090C94CB140C94610F0C94AA
:10021000F0110C94D8140C94910B0C94640C0C9465
:10022000540E0C9420140C94A8010C94F30F0C940D
:1002300004140C948E150C94F70C0C949F140C94CD
:1002400039150C94FE140C94C20B0C94A2040C945B
:100250006E0E0C9400140C94420F0C943D150C94EB
:10026000BC020C94A5140C948D140C947F150C9462
:1002700083150C940C144E41004E41004E41004E2B
:100280004100303132333435363738394142434416
:10029000454630313233343536373839616263643C
:1002A00065663030303030303030303030303030E3
:1002B000303020202020202020202020202020201E
:1002C000202084E88093740011241FBECFEFD1E278
:1002D000DEBFCDBF00E00CBF14E0A0E0B2E0ECE177
:1002E000FBE300E00BBF02C007900D92A036B10700
:1002F000D9F724E0A0E6B4E001C01D92A73BB20705
:10030000E1F78FEF9FE79EBF8DBF8FEF9FE7875B82
:1003100094408138914050F04FEF5EE7475B544086
:1003200067EB74E084E994E00E94AC030E94A409A6
:1003300020E831E040E050E06CEB72E080E494E0D3
:100340000E94080A0E9400000C948C1D0C9400006E
:10035000CF93DF93CDB7DEB76A970FB6F894DEBFC1
:100360000FBECDBF80E092ECA1E0B0E0898B9A8B0C
:10037000AB8BBC8B40E060E070E087E092E00E94D5
:100380007809892B39F064E670E080E090E00E9403
:10039000AE07F9CF40919F025091A0026DEA72E042
:1003A00089E092E00E94771740919D0250919E0251
:1003B0006FEA72E089E092E00E94771780919F02D5
:1003C0009091A0020E947317AE014F5E5F4F61E0F3
:1003D00071E00E941B1660919F027091A00281EB58
:1003E00092E00E940F188CEE882E82E0982E99E001
:1003F000A92E92E0B92E29EFC22E22E0D22E35E5A9
:10040000232E4AEA342E5AE4E52E53E0F52E0CE66C
:1004100013E068EA662E63E0762E7CED472E73E0EB
:10042000572E0E94EC029F938F939F928F920E946F
:100430001D1884E994E00E94B903BF92AF929F9384
:100440008F93DF92CF920E941D1887E193E00E9464
:1004500031181F922F921F923F9281E08F9393E267
:100460009F9375E47F9367E66F9359E85F934BEA38
:100470004F933DEC3F932FEE2F93FF92EF922A8FF5
:10048000398F488F5F8B6E8B7D8B0E941D181F925A
:100490002F92A1E0AF93B3E2BF937D897F936E89E2
:1004A0006F935F895F93488D4F93398D3F932A8D6A
:1004B0002F931F923F921F930F930E941D180FB608
:1004C000F894DEBF0FBECDBF8DE893E00E943118D7
:1004D0001F921F921F9288EE8F9384ED8F9385EA6F
:1004E0008F9380E18F931F927F926F920E941D18CD
:1004F00085EB93E00E9431181F922F921F923F923A
:1005000050E45F9349E44F933FE03F9320ED2F93F6
:100510005F924F922A8F398F488F5F8B0E941D18F0
:100520001F922F925F895F93488D4F93398D3F9330
:100530002A8D2F931F923F92ABEFB3E0BF93AF93FF
:100540000E941D188BE194E00E94311880919F0257
:100550009091A0020E945F1740919D0250919E02CF
:1005600060E170E0CE0101960E94DF170FB6F894AB
:10057000DEBF0FBECDBF55CF0E94D80520E033E0CF
:1005800040E050E068EA71E08BE394E00E94080AE2
:100590008EEF0E94FC040E94AC040E94C304E09110
:1005A0006104F0916204309709F01995909100026E
:1005B0009F3F89F383B723B7217F922B93BF93B7D4
:1005C000916093BF889593B79E7F93BF93B7917FB8
:1005D0008E70892B83BFDFCF85E494E00895CF939D
:1005E000DF93EC016E5F7F4F6430710510F464E0BF
:1005F00070E06F5F7F4F6E7FE881F98130E020E02F
:10060000A0E0B0E03097C9F080819181861797070C
:1006100070F0109731F04D915C9111978417950708
:1006200030F46817790771F03C2F2D2FDF01EF01AF
:1006300022960280F381E02DE5CF1097F9F0C32FC9
:10064000D22FFD0180819181861B970B22813381FE
:100650008430910578F0DF01A60FB71F11969C93A7
:100660008E9313963C932E93129771836083B98374
:10067000A88302C039832883DF011296CD01DF9160
:10068000CF910895CF93DF93EC016115710509F4C3
:1006900054C0FB013297A881B981109709F453C067
:1006A0008D919C9111979C012A0F3B1FE217F30734
:1006B000F9F420813181820F931F11969C938E93C0
:1006C0001296ED91FC9113979D01280F391FE217A7
:1006D000F307E9F520813181820F931F11969C93D6
:1006E0008E938281938113969C938E9312972FC041
:1006F000EA17FB07C0F4F983E88320813181AF0159
:10070000420F531FA417B50759F4280F391F31831F
:10071000208312968D919C9113979383828317C0A7
:10072000B383A28314C0E217F30750F0ED012296C1
:1007300012960D90BC91A02DB0CF8DEF9FEF09C008
:100740008FEF9FEF06C013821282F983E88380E067
:1007500090E0DF91CF910895FB013196EE7F460F37
:10076000571F4E1B5F0B4E7F41935193BF010C945B
:100770004203DC01ED91FC9180E090E0309751F074
:100780002081318122503109820F931F0280F38131
:10079000E02DF4CF0895CF93DF93FC01708F678B2A
:1007A000158214820FB6F8940F92EB01A881B981DB
:1007B000AF3FDFEFBD0741F48481958101969583BA
:1007C0008483A0E0B0E016C01097A1F00F900FBE98
:1007D000828952969C915297891748F0BD016E5FAD
:1007E0007F4F12960D90BC91A02D109791F70FB6E8
:1007F000F8940F92B383A283DB011196FC93EE93DE
:10080000A281B3811097A1F014968D919C911597B8
:10081000892B71F014962D913C91159784819581C7
:10082000820F931F9583848315961C921E921497B2
:100830000F900FBEDF91CF910895CF93DF93FC010E
:100840000FB6F8940F92EB01A881B9810F900FBEFB
:10085000AF3FDFEFBD0769F1109759F1AE17BF0742
:1008600001F50FB6F8940F9282819381DB01119606
:100870009C938E9384819581892B61F0A281B381B1
:10088000109731F08481958115969C938E931497DF
:10089000158214820F900FBE13821282108E178A57
:1008A00008C0BD016E5F7F4F12960D90BC91A02DC8
:1008B000D3CFDF91CF910895CF93DF93C09196046A
:1008C000D0919704209711F10FB6F8940F928C8174
:1008D0009D810F900FBE892BA9F08F89988D0FB63F
:1008E000F8940F922C813D81215031093D832C8356
:1008F0000F900FBEFC01208131812F3F3F4F11F03F
:100900000E94C3080990D881C02DDCCF0E94A806A0
:10091000E0919A04F0919B0480919804909199043D
:10092000E817F90761F08785813011F482E0878745
:100930000FB6F8940F920E94CD090F900FBEDF9171
:10094000CF910895CB01FB01168A158A22E02787F3
:1009500068E974E00C94CB0380919A0490919B0415
:10096000FC0122813381232B61F068E974E00E944D
:100970001D0468E974E080919A0490919B040E94A0
:10098000CB030C945C04E0919C04F0919D0430979F
:1009900051F06389748984E994E00E9442031092C3
:1009A0009D0410929C040895CF93DF93C091960408
:1009B000D09197040E94C30480919A0490919B0463
:1009C000E6E9F4E0209769F0C817D90729F488818F
:1009D00099819183808305C0FE010990D881C02D43
:1009E000F1CF80919A0490919B0490939D04809301
:1009F0009C04DF91CF910895CF93DF93C82F80910E
:100A00009A0490919B04FC01D28968E974E00E94E9
:100A10001D0480919A0490919B04FC01C28BCF3FEE
:100A200029F068E974E00E94CB0302C00E94D4045C
:100A3000E0919A04F0919B0480919804909199041C
:100A4000E817F90719F481E0878709C082E08787F2
:100A50000FB6F8940F920E94CD090F900FBE8D2F04
:100A6000DF91CF91089580916F0490917004A091CF
:100A70007104B09172040196A11DB11D80936F04A1
:100A800090937004A0937104B093720440916B042E
:100A900050916C0460916D0470916E0480916304B8
:100AA00090916404A0916504B0916604840F951F31
:100AB000A61FB71F80936B0490936C04A0936D04E2
:100AC000B0936E0480916B0490916C04A0916D04BE
:100AD000B0916E0481349244AF40B1053CF18091F5
:100AE000670490916804A0916904B0916A0401962A
:100AF000A11DB11D8093670490936804A0936904BD
:100B0000B0936A0480916B0490916C04A0916D0481
:100B1000B0916E0480549244AF40B10980936B044D
:100B200090936C04A0936D04B0936E040895CF92DB
:100B3000DF92EF92FF929B01AC01A091A004B091D3
:100B4000A1040E94201DC72ED82EE92EFF2441E3C8
:100B5000C416D104E104F10430F180E3C81AD108CD
:100B6000E108F108D701C60120E030E0009741E03C
:100B7000A407B10528F0F9013197F1F71197F6CFE5
:100B8000970144275527A0E0B0E00E942E1DC60E15
:100B9000D71EE81EF91EC114D104E104F10419F0B6
:100BA000C6010197F1F7FF90EF90DF90CF90089585
:100BB00083E395E00E94CB0A0E94EF0A9B01AC01FF
:100BC00060E472E48FE090E00E94F61C20936304DE
:100BD000309364044093650450936604E0E7F0E0CA
:100BE0008081826080838FEA93E09093A104809358
:100BF000A0040895CF93C82FCC2341F068EE73E092
:100C000080E090E00E949705C150F6CFCF91089503
:100C10000F931F93FC0113821282A0919E04B09146
:100C20009F04109741F14085518562857385189620
:100C30000D911D912D913C911B9740175107620713
:100C4000730758F4041B150B260B370B18960D93DE
:100C50001D932D933C931B970EC0401B510B620BB1
:100C6000730B4087518762877387B383A2830D908C
:100C7000BC91A02DD6CFB183A083109721F01396FD
:100C8000FC93EE931297A281B381109719F0ED9324
:100C9000FC9304C0F0939F04E0939E041F910F9176
:100CA00008950F931F93CF93DF93FC011482158255
:100CB0001682178215861486408551856285738554
:100CC000411551056105710581F1C281D381808192
:100CD0009181209719F09983888304C090939F0491
:100CE00080939E04A081B1811097A1F01396DC93AC
:100CF000CE93129718960D911D912D913C911B97B3
:100D0000400F511F621F731F18964D935D936D9393
:100D10007C931B971086118612861386CF01DF9174
:100D2000CF911F910F910C940806DF91CF911F91E5
:100D30000F9108950FB6F8940F9260916F0470911F
:100D4000700480917104909172040F900FBE089509
:100D5000CF92DF92EF92FF92CF93DF930E949A0699
:100D6000C0907704D0907804E0907904F0907A04F1
:100D70009B01AC012C193D094E095F0969017A01FB
:100D800060937704709378048093790490937A0445
:100D9000C0919E04D0919F04209709F458C0C114BB
:100DA000D104E104F10409F452C088859985AA852B
:100DB000BB85C816D906EA06FB0660F48C199D09A6
:100DC000AE09BF0988879987AA87BB87C12CD12C18
:100DD000760108C0C81AD90AEA0AFB0A18861986D9
:100DE0001A861B8688859985AA85BB85892B8A2BBF
:100DF0008B2B71F6EC85FD85309721F06E857F8514
:100E0000CE011995E0919E04F0919F040190F0812C
:100E1000E02DF0939F04E0939E04309711F013822D
:100E200012828C819D81AE81BF8188879987AA8734
:100E3000BB87892B8A2B8B2B31F4BE0184E994E08C
:100E40000E944203A5CFCE010E940806A1CFDF91E8
:100E5000CF91FF90EF90DF90CF9008954F925F92E7
:100E60006F927F928F929F92AF92BF92CF92DF92BA
:100E7000EF92FF920F93CF93DF934B015C016A01D6
:100E8000790160E170E084E994E00E94EF02EC01F6
:100E9000892B49F10E949A0640907704509078047B
:100EA0006090790470907A04A501940124193509A1
:100EB00046095709DC01CB01820F931FA41FB51F00
:100EC00088879987AA87BB8700FF05C01C821D827F
:100ED0001E821F8204C08C829D82AE82BF82DD860C
:100EE000CC86FF86EE86CE01DF91CF910F91FF90E9
:100EF000EF90DF90CF90BF90AF909F908F907F90BA
:100F00006F905F904F9008950F93CF93DF930E945F
:100F10002E07EC01009711F00E940806CE01DF9128
:100F2000CF910F9108950F93CF93DF9300D01F922D
:100F3000CDB7DEB72B833C8349835A830E94F40AE2
:100F40002B813C8149815A810E9484070F900F9028
:100F50000F900F90DF91CF910F910895CF92DF9274
:100F6000EF92FF920F93CF93DF936B017C01672B7E
:100F7000682B692B09F43FC068E974E080919A04FA
:100F800090919B040E941D04C0919A04D0919B04EF
:100F900083E08F8701E09E0142EA54E0C701B60179
:100FA0000E9493079E8B8D8B892B49F0DF91CF9107
:100FB0000F91FF90EF90DF90CF900C945C04E09144
:100FC0009A04F0919B0488E994E0908F878B80913C
:100FD0009804909199049383828381E08787F093AA
:100FE0009904E0939804DF91CF910F91FF90EF90D7
:100FF000DF90CF900895DF91CF910F91FF90EF9008
:10100000DF90CF900C94AC0460E070E081EE90E053
:101010000895CF93DF93FB010FB6F8940F92C08130
:10102000D1810F900FBECF3F2FEFD207A9F12097AC
:1010300099F14D895E892A813B814817590741F50D
:101040000FB6F8940F92318320838C819D81892B78
:1010500089F0AA81BB81109739F08C819D8115960A
:101060009C938E93149704C08FEF9FEF918380839E
:101070001D821C820F900FBE82E08F8768E974E0AA
:10108000CE010E94CB038FEF9FEF9E8B8D8B04C010
:10109000FE013296E901CBCFDF91CF9108958F9277
:1010A0009F92AF92BF92EF92FF920F93CF93DF93F5
:1010B000EC014A015B010FB6F8940F928881998187
:1010C0000F900FBE019651F40FB6F8940F9219824B
:1010D00018820F900FBE0E94AC0439C068E974E01A
:1010E00080919A0490919B040E941D04BE018091FE
:1010F0009A0490919B040E94CB03E0909A04F09094
:101100009B0483E0F701878781149104A104B10453
:1011100061F001E09E0149E058E0C501B4010E9480
:101120009307F701968B858B03C0F701168A158A02
:101130000E945C04E0919A04F0919B048589968951
:10114000019629F4168A158A8FEF9FEF02C080E07E
:1011500090E0DF91CF910F91FF90EF90BF90AF9013
:101160009F908F9008950FB6F8940F92FC01208104
:1011700031812F3F3F4F19F4FC01118210820F90F3
:101180000FBE0C944F08CF93DF93FC010FB6F89479
:101190000F92C081D1810F900FBECF3F8FEFD80744
:1011A00009F43BC0209781F10FB6F8940F928A8121
:1011B0009B81918380838C819D81892B89F0AA8179
:1011C000BB81109739F08C819D8115969C938E93ED
:1011D000149704C08FEF9FEF918380831D821C8240
:1011E0000F900FBE8D899E89009721F00E945106B5
:1011F0001E8A1D8A82E08F8768E974E0CE010E9412
:10120000CB0381E090E00BC00FB6F8940F928FEF04
:101210009FEF918380830F900FBE80E090E0DF917D
:10122000CF9108950F931F93CF93DF938C010FB647
:10123000F8940F92FC01808191810F900FBE8F3F37
:10124000FFEF9F0759F40FB6F8940F92F80111823F
:1012500010820F900FBEC0E0D0E015C0C0E0D0E01B
:10126000892B89F0C8010E94C308C80FD91F0FB687
:10127000F8940F92F801808191810F900FBE019731
:101280008E3F9F4F78F3CE01DF91CF911F910F9149
:101290000895CF93DF931F921F92CDB7DEB70E94C0
:1012A000120989839A830E94AC0489819A810F90E4
:1012B0000F90DF91CF9108950F931F93CF93DF93FA
:1012C0008C01C0917B04D0917C04209759F0B80127
:1012D000CE0102960E946C1D892B21F00990D881C5
:1012E000C02DF3CFCE01DF91CF911F910F910895C3
:1012F000CF93DF93EC016115710511F07D876C8749
:1013000041114E87CE0102960E945C09892B19F08B
:101310008FEF9FEF16C0EB89FC89309769F48091BD
:101320007B0490917C0499838883D0937C04C09340
:101330007B0480E090E005C0CE011995892B79F3FC
:10134000E7CFDF91CF91089543E150E062EA74E086
:1013500080E090E00E941116892B71F48091A20424
:10136000833151F442E050E06DE474E083EA94E0AC
:101370000E945F1D009741F060E574E085EA94E00B
:101380000E94751D8FEF9FEF08959F918F910F9091
:101390000BBE0F900FBE1F901895E0919A04F0912C
:1013A0009B042F923F924F925F926F927F928F9207
:1013B0009F92AF92BF92CF92DF92EF92FF920F93E4
:1013C0001F93CF93DF938DB79EB7918B808BE09166
:1013D0009804F0919904F0939B04E0939A0481E0BF
:1013E0008787808991898DBF9EBFDF91CF911F91A3
:1013F0000F91FF90EF90DF90CF90BF90AF909F90B4
:101400008F907F906F905F904F903F902F900895B6
:101410008F929F92BF92CF92DF92EF92FF920F93A3
:101420001F93CF93DF931F921F92CDB7DEB77C013E
:10143000062FB72E4901B901675E7F4F84E994E01A
:1014400049835A830E94EF0249815A81009709F427
:1014500090C0880E991E940128503109B4016D5135
:101460007109D401169618E0F70101900D921A95B2
:10147000E1F7D4011E961C921E97F4017E975196B7
:10148000FC93EE93509754969C938E935397EFEE64
:10149000CE2EEEEBDE2EEDEAEE2EEEEDFE2EFC0174
:1014A000C082D182E282F382C482D582E682F78250
:1014B000C086D186E286F386C486D586E686F78620
:1014C00080E4F401828BD90115961C92159716962B
:1014D000BC92169717960C93179780E813968C93E7
:1014E000139712961C92129714961C9214971196A9
:1014F0004C9311975C93FB01128A85EC99E0938BD6
:10150000848B8091960490919704D40111969C93BA
:101510008E93909297048092960482E01F968C930B
:101520001F9756961C921E92559758961C921E9283
:10153000579768E974E0C4010E94CB03E0919A04D4
:10154000F0919B04309721F40FB6F8940F923FCF9F
:101550008091980490919904E817F90769F082E066
:1015600087870FB6F8940F920E94CD090F900FBE97
:1015700003C080E090E001C0C4010F900F90DF91A4
:10158000CF911F910F91FF90EF90DF90CF90BF9080
:101590009F908F900895BC0180E090E0A1EEB0E0B4
:1015A00080937D0490937E04A0937F04B093800485
:1015B000E0E7F0E090819D7F90831092B20092E08E
:1015C0009093B00085E08093B10082E78093B300F0
:1015D00095BB40E050E081E092E00C9469106AEE27
:1015E00073E080E090E00895611520E872072EE333
:1015F0008207910558F028EE33E040E050E00E9469
:10160000F61CAAEEB3E00E94201D0895AAEEB3E0F6
:101610009B01AC010E94201D69517C4F8F4F9F4F51
:1016200028EE33E040E050E00E94F61CCA01B90108
:101630000895FB01209170002270309170003D7F71
:101640003093700080319105A9F02CF4009771F06F
:10165000019769F023C08231910569F14CF18097BF
:10166000E9F488E090E09183808315C020E082E077
:1016700087BB11C0B99B05C081E090E09183808356
:1016800002C0118210822223B1F080819181806892
:10169000918380830DC080E090E002C08FEF9FEFC8
:1016A000222359F020917000226020937000089549
:1016B00080E090E0F7CF80E090E008951F920F92D5
:1016C0000FB60F9211240BB60F922F933F934F93A7
:1016D0005F936F937F938F939F93AF93BF93EF939A
:1016E000FF9381E092E00E945E10FF91EF91BF9125
:1016F000AF919F918F917F916F915F914F913F91AA
:101700002F910F900BBE0F900FBE0F901F9018954A
:101710000FB6F8940F9288EB8093C1000F900FBE24
:1017200008958091C20083FD02C081E0089582E0A7
:1017300008952091830424FB882780F990E0A0E09D
:10174000B0E023FD826022FD846020918204222388
:1017500021F026FDA26027FDA860A1FFA160A3FFE4
:10176000A46020918104222311F0A06401C0A0682C
:101770002091C000BC01CD0120FF02C0806108950E
:1017800080620895CF92DF92EF92FF926B017C010D
:10179000809182048823D9F00FB6F8940F92E0FE6E
:1017A00002C08F7B03C0E1FE03C08064809382048B
:1017B000E2FE04C0809182048F7705C0E3FE05C07D
:1017C000809182048068809382040F900FBEE6FEB1
:1017D00003C081E080938104E7FC10928104E4FE61
:1017E00005C08091C00081608093C000E5FE05C007
:1017F0008091C0008E7F8093C000C0FE05C08091A4
:1018000083048F7E80938304C1FE05C0809183048E
:10181000877F80938304C2FE05C0809183048B7F01
:10182000809383040E94990BDC01CB01887F21E027
:1018300030E08C159D05AE05BF0511F420E030E0C9
:1018400088279927821B930BFF90EF90DF90CF9012
:10185000089580918204811104C060E070E0CB01A2
:10186000089560E270E080E090E00895CF92DF920A
:10187000EF92FF926B017C0165FF0BC080918204A7
:1018800081110EC00FB6F8940F9281E48093820408
:1018900005C00FB6F8940F92109282040F900FBEFD
:1018A0000E94290C21E030E0C616D706E806F906AA
:1018B00011F420E030E088279927821B930BFF90DA
:1018C000EF90DF90CF900895E1ECF0E080818062AE
:1018D00080830895CF93DF930FB6F8940F92C1ECF5
:1018E000D0E088818F77888388818F7B8883888107
:1018F0008F7D88830F900FBE8AE00E94FA05888151
:101900008F7E88838881877F8883DF91CF91089538
:10191000CF93C82F0E946A0CC13021F48091C2007D
:10192000877F05C0C23029F48091C200886080930F
:10193000C2000E94880B0E94910B21E030E0C81386
:1019400002C020E030E088279927821B930BCF91BB
:1019500008958F929F92AF92BF92CF92DF92EF92B3
:10196000FF92CF93DF932091C4008091C50030E0B7
:10197000E901D82B8091C20086FD0AC08091C00089
:1019800081FD0CC020E1C22ED12CE12CF12C0BC02A
:1019900092E0C92ED12CE12CF12C05C088E0C82E94
:1019A000D12CE12CF12C0E9404084B015C01CE01EA
:1019B000A0E0B0E09C01AD012F5F3F4F4F4F5F4F64
:1019C000C701B6010E94E61C9B01AC01C501B40130
:1019D0000E94F61CCA01B901DF91CF91FF90EF90F0
:1019E000DF90CF90BF90AF909F908F900895CF934E
:1019F000DF9300D01F92CDB7DEB79B01AC016983A6
:101A00003A834B835C830E946A0C8091C2002981D7
:101A10003A814B815C8186FD13C08091C00081FFBB
:101A200008C072E0220F331F441F551F7A95D1F76B
:101A300007C063E0220F331F441F551F6A95D1F77B
:101A400029833A834B835C830E94040829813A816D
:101A50004B815C810E94F61CDA01C9010196A11D2F
:101A6000B11DB695A795979587959C012150310991
:101A70002093C4003093C5000E94880B80E090E062
:101A80000F900F900F900F90DF91CF91089540E04D
:101A900050E060E070E081E992E00E94691040E06F
:101AA00050E060E070E087E992E00E94691080E019
:101AB00090E00895FC01A281B38180918204982F67
:101AC0009073B9F084FF07C083E18093C6008091D2
:101AD0008204806406C081E18093C6008091820404
:101AE0008F7B80938204809182048F7C8093820418
:101AF000089587FF06C08091C1008F7D8093C1004B
:101B0000089582859385892B31F18285938501978C
:101B10009387828780918104882321F08091C1007E
:101B2000816003C08091C1008E7F8093C1008D9140
:101B30008093C60086819781A817B90711F4A48104
:101B4000B581B383A2832285338584859585281743
:101B5000390719F507C08091C1008F7D8093C100BE
:101B600013861286A089B189109729F48FEF9FEF11
:101B7000918B808B0DC0AF3F8FEFB80749F0149663
:101B80008D919C911597019615969C938E93149721
:101B900062E0868997890C94E2160895EF92FF928D
:101BA0001F93CF93DF93EC019091C0008091830449
:101BB000982B909383041091C6008091820488230F
:101BC000C1F0133149F48091C1008F7D8093C10031
:101BD0008091820480680AC0113159F48091C1005B
:101BE00080628093C100809182048F778093820409
:101BF00055C02A853B85488559852417350720F02F
:101C00009860909383044AC079019FEFE91AF90A1A
:101C1000232BC1F4E889F989309729F48FEF9FEFDE
:101C2000998B888B09C0EF3F8FEFF80729F08481EB
:101C3000958101969583848361E08E899F890E94B6
:101C4000E21618C08823B1F02E853F85E216F30610
:101C500088F086FD0FC09091C00095FF08C083E119
:101C60008093C600809182048F7D806401C0806271
:101C700080938204E881F981CF010196998388835A
:101C80001083288139818E819F812817390721F49B
:101C90008C819D8199838883FB86EA86DF91CF9131
:101CA0001F91FF90EF9008958091C10082FD10C0B8
:101CB0008091C20082FF06C08091C20081FD0AC0EF
:101CC00087E008958091C20081FD06C085E00895F7
:101CD00089E0089588E0089586E00895CF93C82F9D
:101CE0000E946A0C8091C1008B7F8093C10080911B
:101CF000C2008D7F8093C2008091C2008B7F809351
:101D0000C200C730A9F030F4C630B9F48091C200E7
:101D1000826011C0C83039F0C93079F48091C100B7
:101D200084608093C1008091C20082608093C20071
:101D30008091C20084608093C2000E94880B0E9440
:101D4000540E21E030E0C81302C020E030E08827C4
:101D50009927821B930BCF9108959091C200892FF0
:101D6000807295FF07C08091C20084FD02C082E0AE
:101D7000089581E00895CF93C82F0E946A0CC13066
:101D800081F030F0C230B9F48091C2008F7E0CC077
:101D90008091C2008F7E8093C2008091C2008F7DAF
:101DA00008C08091C20080618093C2008091C2000F
:101DB00080628093C2000E94880B0E94AD0E21E0D9
:101DC00030E0C81302C020E030E088279927821B4A
:101DD000930BCF9108958091C20086FF0BC06A9B40
:101DE00002C083E001C081E09091C20090FF09C071
:101DF000846008958091C00081FF02C080E2089550
:101E000080E00895CF93C82F0E946A0CC0FF17C0CE
:101E1000C1FF02C06A9A01C06A988091C200C2FFE5
:101E200002C0816001C08E7F8093C2008091C0009B
:101E30008D7F8093C0008091C200806411C080912A
:101E4000C000C5FF02C0826001C08D7F8093C000CA
:101E50008091C2008E7F8093C2008091C2008F7BF0
:101E60008093C2000E94880B0E94EB0E21E030E0BC
:101E7000C81302C020E030E088279927821B930B0B
:101E8000CF910895809182048823D1F086FF18C0F5
:101E90000FB6F8940F929091C00095FF07C081E1B2
:101EA0008093C600809182048F7E01C08061809300
:101EB0008204809182048F79809382040F900FBEF8
:101EC000089544E552E06EEC7DE081E992E00E94E5
:101ED0006910892B91F44CE352E06AE57DE087E9D3
:101EE00092E00E946910009751F040E050E060E0FD
:101EF00070E081E992E00E9469108FEF9FEF0895F2
:101F0000FB012091C10020783091C1003F773093D0
:101F1000C10080319105B9F02CF4009771F0019760
:101F200069F027C08231910589F16CF1809709F53C
:101F300080E190E09183808319C020E08091C60009
:101F40008091C60013C08091C00087FF05C081E06A
:101F500090E09183808302C0118210822223B1F02D
:101F6000808191818068918380830DC080E090E0C2
:101F700002C08FEF9FEF222359F02091C10020680B
:101F80002093C100089580E090E0F7CF80E090E0DA
:101F900008951F920F920FB60F9211240BB60F9255
:101FA0002F933F934F935F936F937F938F939F9361
:101FB000AF93BF93EF93FF9381E992E00E945E108D
:101FC000FF91EF91BF91AF919F918F917F916F9111
:101FD0005F914F913F912F910F900BBE0F900FBECD
:101FE0000F901F901895FB012091C1002072309135
:101FF000C1003F7D3093C1008131910579F12CF40E
:10200000009779F1409769F01FC08231910549F13D
:102010008097D1F480E190E09183808380E090E02C
:1020200015C08091C00085FF05C081E090E09183DC
:10203000808302C011821082222399F080819181D5
:102040008068918380830AC08FEF9FEF222359F02D
:102050002091C10020622093C100089580E090E0AB
:10206000F7CF80E090E008951F920F920FB60F9285
:1020700011240BB60F922F933F934F935F936F935F
:102080007F938F939F93AF93BF93EF93FF9387E9D2
:1020900092E00E945E10FF91EF91BF91AF919F91EE
:1020A0008F917F916F915F914F913F912F910F9001
:1020B0000BBE0F900FBE0F901F901895DC0112966B
:1020C000ED91FC911397309719F08D919C91199493
:1020D0000895EF92FF920F931F93CF93DF93EC013C
:1020E0008B017A01EC81FD81309731F060E070E086
:1020F00080E090E0199502C080E090E0F982E882EB
:102100001B830A83DF91CF911F910F91FF90EF9076
:102110000895AF92BF92CF92DF92EF92FF920F930A
:102120001F93CF93DF93EC017A010FB6F8940F92CF
:102130008A8D9B8D680F791F7B8F6A8F0A8D1B8D0F
:102140000F900FBE6E0185E4C80ED11C5E01A0E2A7
:10215000AA0EB11CE016F106A8F4D601ED91FC918F
:1021600019954C855D856E857F85C5010E944F0858
:10217000892B41F40FB6F8940F920A8D1B8D0F90A6
:102180000FBEE8CFC801DF91CF911F910F91FF9053
:10219000EF90DF90CF90BF90AF900895CF92DF92F5
:1021A000EF92FF920F931F93CF93DF93EC018B017C
:1021B0006A0179018C819D81288539850FB6F89453
:1021C0000F92198618860F900FBE2617370769F0F1
:1021D000232B11F00E94651801151105F9F0C801B3
:1021E0000E945718009719F41CC0672BB9F09D8303
:1021F0008C83998388839B838A83800F911F9F831D
:102200008E83DD86CC86FF86EE861B861A860FB609
:10221000F8940F92198708870F900FBE80E090E026
:1022200002C08FEF9FEFDF91CF911F910F91FF9031
:10223000EF90DF90CF9008958F929F92AF92BF92D0
:10224000CF92DF92EF92FF920F931F93CF93DF9382
:10225000EC016B015A01490188819981AA81BB81F6
:1022600094FF18C07DA36CA35BA34AA3FE01EB5BA4
:10227000FF4F0190F081E02D19954C855D856E85AD
:102280007F85CE0180960E94B308009709F09BC01D
:10229000C50199C0288D398D232B09F490C0672B77
:1022A00099F440E050E060E070E0CE01DF91CF9122
:1022B0001F910F91FF90EF90DF90CF90BF90AF9064
:1022C0009F908F900C9489108C019D0149E0369568
:1022D0002795179507954A95D1F7017057E0B69560
:1022E000A795979587955A95D1F7182F11700FB626
:1022F000F8940F928A8D9B8D0F900FBE60E070E076
:10230000E12CF12CEA14FB040CF045C04E8D5F8DDE
:102310009C01260F371F2417350768F04C8D5D8D03
:10232000CE010E9489102C8D3D8D2817390708F4A5
:1023300049C060E070E0F6018114910411F044910D
:1023400001C04081113041F44A3049F44DE012E0BF
:10235000013059F402E009C0123009F411E0FFEF36
:10236000CF1ADF0A2FEFE21AF20AE889F9899F01F2
:102370002F5F3F4F398B288B4083488959892E899D
:102380003F894217530721F42C893D89398B288BCB
:102390006F5F7F4FB7CF61157105A1F00FB6F8944D
:1023A0000F928A8D9B8D680F791F7B8F6A8F0F909C
:1023B0000FBECB5BDF4FE881F981199503C08FEF2A
:1023C0009FEF01C0C701DF91CF911F910F91FF9047
:1023D000EF90DF90CF90BF90AF909F908F90089537
:1023E0000F931F93CF93DF93FC01C189D289FE0124
:1023F000EF5BFF4F0190F081E02D19958C01892B47
:1024000049F4C35BDF4FE881F98160E072EC81E061
:1024100090E01995C801DF91CF911F910F91089518
:10242000AF92BF92CF92DF92EF92FF920F931F93E2
:10243000CF93DF938B016A01DC01ED91FC91C1899F
:10244000D28988819981AA81BB8193FF0BC07DAF1E
:102450006CAF5BAF4AAFC95BDF4FE881F98119957B
:10246000C601BBC068A979A96115710519F48FEF80
:102470009FEFB3C00115110571F42EA93FA94CA916
:102480005DA9CE0188960E94CE10C95BDF4FE8811E
:10249000F9811995A0C07E01B7E4EB0EF11C5E0135
:1024A00028E3A20EB11C0FB6F8940F924AA95BA9BB
:1024B0000F900FBE4115510599F4D701ED91FC9194
:1024C0001995488559856A857B85C5010E944F0805
:1024D000892B09F080C088A999A9892B21F7C7CF3A
:1024E000888187FF3AC080E090E0E12CF12CFE016A
:1024F000E05CFF4F6AE0EC14FD0408F050C0841764
:10250000950709F44EC0AAA5BBA59D012F5F3F4FBB
:102510003BA72AA72C91AAA4BBA4AEA5BFA5AA1627
:10252000BB0621F4ACA5BDA5BBA7AAA701962D307B
:1025300011F02A3049F43081332311F02313DBCF1B
:102540002083D8016C9303C01082D8012C93BFEF75
:10255000EB1AFB0A0F5F1F4FCECF7A01C416D506C8
:1025600008F47601F801C8018E0D9F1DE817F907E0
:10257000A9F0AAA5BBA59D012F5F3F4F3BA72AA7A6
:102580002C9121934AA55BA52EA53FA54217530781
:1025900069F72CA53DA53BA72AA7E8CFC70100975F
:1025A000C1F00FB6F8940F922AA93BA9A901481BC4
:1025B000590B5BAB4AAB0F900FBE2AA93BA98CA964
:1025C0009DA92817390728F4C95BDF4FE881F981F5
:1025D0001995C70102C080E090E0DF91CF911F9173
:1025E0000F91FF90EF90DF90CF90BF90AF90089544
:1025F000DC01ED91FC9120E030E0818992890C941E
:102600001C11DC01ED91FC9121E030E0818992897F
:102610000C941C11EF92FF920F931F93CF93DF93B3
:102620008C01DC01ED91FC91C189D28940E050E040
:1026300060E070E0CE010E9489107C01FE01E35A47
:10264000FF4F0190F081E02D60E072E080E090E0CB
:102650001995C8010E94651820E030E040E050E084
:1026600060E070E0CE0140960E94CE1020E030E0A5
:1026700040E050E060E070E0CE0188960E94CE100D
:10268000CE01C8960E94490961E08EAD9FAD0E94BF
:10269000C31662E08EA19FA10E94C31681E090E064
:1026A000EF2811F480E090E0919581959109DF91F8
:1026B000CF911F910F91FF90EF900895AF92BF922D
:1026C000CF92DF92EF92FF920F931F93CF93DF93FE
:1026D0006C015A01FC01C189D2897A01F3E0EF2231
:1026E000FF24E114F10479F420EF30E040ED50E0F4
:1026F00060E071E0CE0188960E94CE10892B99F09F
:102700008C899D891DC028E330E048E250E060E4F8
:1027100070E0CE0140960E94CE10892BA1F521E0F9
:10272000E216F10409F784E090E00E9457188C014A
:10273000892B49F48C899D890E9465188CA59DA5DB
:102740000E94651820C0AA2480ECB8228881998153
:10275000AA81BB81A114E0E8BE0611F48F7701C005
:10276000806888839983AA83BB83F801D182C08261
:1027700013821282EA94EF2849F0C95BDF4FE881A7
:10278000F981199503C08FEF9FEF01C0C801DF9158
:10279000CF911F910F91FF90EF90DF90CF90BF905E
:1027A000AF900895AF92BF92CF92DF92EF92FF92D7
:1027B0000F931F93CF93DF931F921F92CDB7DEB776
:1027C0008A01FA01C080D180E280F3802C2DFC01C7
:1027D000A188B288FB01E150F140E333F10508F034
:1027E000BCC18827EA59FF4F8F4F0C94181DF50183
:1027F000E35BFF4F0190F081E02DC701B6015BC0A4
:10280000F501E15BFF4FE4C0F501EF5AFF4F07C050
:10281000F501ED5AFF4F17C0F501EB5AFF4F01903C
:10282000F081E02D8C2D0F900F90DF91CF911F91B3
:102830000F91FF90EF90DF90CF90BF90AF901994E1
:10284000F501E95AFF4F0190F081E02D199590E0D4
:102850007CC1F501E75AFF4FE2CFF501E55AFF4F82
:10286000F2CFC6FE12C0F50126A937A944A955A981
:1028700060A971A9C50188960E94CE10F501E95B97
:10288000FF4F0190F081E02D1995C7FE0BC0F501B7
:10289000268D378D448D558D608D718DC501409687
:1028A0000E94CE10C701B6016F73F501E35AFF4FC6
:1028B0000190F081E02D0F900F90DF91CF911F914B
:1028C0000F91FF90EF90DF90CF90BF90AF90199451
:1028D000F501E15AFF4F0190F081E02D1995F801C3
:1028E0006083718382839383F50122A933A9232B0B
:1028F00041F4DC01CB018064F80180839183A283E1
:10290000B383F501828D938D892B09F029C1F801DC
:1029100080819181A281B3816CC0F501C086D1868E
:10292000E286F3861DC1F50180859185A285B38578
:102930000EC1F501C486D586E686F78611C1F5017C
:1029400084859585A685B78502C1F501C080D180B3
:10295000E280F380222319F06894C6F870C0E894EE
:10296000C6F86DC0F501808186FF09C081E090E066
:10297000A0E0B0E0ECC0F501808187FDF7CFF80161
:102980001082118212821382EBC0F501C080D180C7
:10299000E280F38055C0F501C080D180E280F380F1
:1029A000222319F06894D3F84AC0E894D3F847C0BA
:1029B000F501C080D180E280F380222319F0689471
:1029C000D4F83DC0E894D4F83AC0F501E55BFF4F78
:1029D0000190F081E02D1995F80160837183828365
:1029E0009383BEC0F50180819181A281B381CC2007
:1029F00011F08068ADC08F77F501AAC0F501C080E5
:102A0000D180E280F380222319F06894D2F817C0B5
:102A1000E894D2F814C0F50180819181A281B3813C
:102A200092FDA4CFACCFF501C080D180E280F380CD
:102A3000222319F06894D5F802C0E894D5F8F5017E
:102A4000E75BFF4F0190F081E02DC701B6011995BA
:102A5000009709F087C0F501C082D182E282F3823B
:102A600081C0F50180819181A281B38195FD7ECFE6
:102A700086CFF501EF59FF4FD2CEF501ED59FF4F4B
:102A8000E2CEF501268D378D448D558DB601C501F9
:102A900040960E94CE10009709F064C0F501E95BF2
:102AA000FF4F0190F081E02D89839A8319958981E8
:102AB0009A8158C0F501808D918D47C0F50126A9F6
:102AC00037A944A955A9B601C50188960F900F9062
:102AD000DF91CF911F910F91FF90EF90DF90CF90FA
:102AE000BF90AF900C94CE10F50180A991A92DC094
:102AF0000FB6F8940F92F501D58EC48E20C0F50163
:102B0000848D958D22C00FB6F8940F92F501D78E63
:102B1000C68E15C0F501868D978D17C00FB6F89437
:102B20000F92F501D5AAC4AA0AC0F50184A995A9F6
:102B30000CC00FB6F8940F92F501D7AAC6AA0F9051
:102B40000FBE0EC0F50186A997A9A0E0B0E0F8017C
:102B500080839183A283B38303C08FEF9FEF02C072
:102B600080E090E00F900F90DF91CF911F910F9137
:102B7000FF90EF90DF90CF90BF90AF900895DC0171
:102B8000ED91FC910188F289E02D0FB6F8940F9237
:102B900062A973A90F900FBE80E090E00895CF92D4
:102BA000DF92EF92FF920F931F93CF93DF938B01EE
:102BB0007A016901DC01ED91FC91C189D289AB01F7
:102BC00041705527B701CE01CE960E940917A80182
:102BD000427055279601B701CE0186960E940917CB
:102BE0000FB6F8940F928AA99BA931E020E0892BB7
:102BF00009F430E0832F922F4A8D5B8D288D398D1B
:102C00004217530708F482600F900FBE8023912370
:102C1000DF91CF911F910F91FF90EF90DF90CF90B8
:102C200008950C9413169C01CB01B9010E947C1DE0
:102C300080E090E0089588309105D0F4880F991FC6
:102C4000FC01EC57FB4FA081B181109789F08D9169
:102C50009C911197009731F41B96ED91FC911C9774
:102C6000CD0105C0DC015596ED91FC915697199464
:102C700089E090E09093B6048093B5048FEF9FEFC6
:102C80000895AF92BF92CF92DF92EF92FF920F938F
:102C90001F93CF93DF93CDB7DEB729970FB6F89484
:102CA000DEBF0FBECDBF5B01FC01DE01119690E0DF
:102CB000AD016F012191222339F02A3329F0983098
:102CC00019F02D939F5FF5CFFA01E90FF11D1082E6
:102CD000CA010E945C09009719F482E090E011C0DB
:102CE000E4E8F4E0E12CF12C21913191232B81F0E7
:102CF0002FEFE21AF20AA8E0EA16F104A9F788E138
:102D000090E09093B6048093B5048FEF9FEF2AC0B4
:102D10008701000F111FF801EC57FB4F2FEF3FEF1A
:102D200031832083F60120812A3321F4B6016F5FBD
:102D30007F4F02C060E070E0DC015D96ED91FC9198
:102D40005E9720E030E0A5011995F801EC57FB4FA4
:102D50008F3FBFEF9B0719F411821082D6CF91836A
:102D60008083C70129960FB6F894DEBF0FBECDBF92
:102D7000DF91CF911F910F91FF90EF90DF90CF9057
:102D8000BF90AF9008950F931F93CF93DF931F923F
:102D9000CDB7DEB78C010115110571F0F801848102
:102DA000862331F08281938169830E94C3086981FF
:102DB000F80100811181EFCF0F90DF91CF911F912A
:102DC0000F910895CF93DF93FC012FEF3FEF3097E2
:102DD000E9F084818623B1F0C281D381A881B981D1
:102DE000109719F4398328830DC0AF3F8FEFB807D0
:102DF00049F014968D919C911597019615969C9388
:102E00008E9314970190F081E02DE1CFDF91CF9167
:102E10000895EF92FF920F931F93CF93DF93EC01EE
:102E20008B017A012115310509F442C0892B09F47F
:102E30003FC0672B09F43CC0452B09F439C0213051
:102E4000310541F02230310509F032C00FB6F89457
:102E50000F921EC085E090E00E945718FC0113837A
:102E60000283E4820FB6F8940F928881998191834E
:102E70008083F983E8830F900FBE1AC0FC01428162
:102E8000538120813181398328830417150721F06C
:102E900088819981009791F70F900FBE009741F0BC
:102EA000DF91CF911F910F91FF90EF900C946518D7
:102EB000DF91CF911F910F91FF90EF90089540E027
:102EC00050E060E070E0FC01808191810E94EE1B87
:102ED00021E030E0892B11F420E030E088279927A9
:102EE000821B930B0895FC018081918108959F922C
:102EF000AF92BF92CF92DF92EF92FF920F931F9308
:102F0000CF93DF935C01CB018A010E94391C7C01C5
:102F1000019699F0EDE9F2E0C0E0D0E08191919165
:102F20008017910769F02196C830D105B9F789E07B
:102F300090E09093B6048093B504E0E0F0E032C0F6
:102F400087E090E00E9457186C018E01000F111F5E
:102F500003561D4FF801D182C082C114D10469F318
:102F6000B701C5010E9441169C01F601918380833F
:102F7000F801808191812F3F3F4F71F40E946518C5
:102F800042E04C1728F02196F801D183C083D5CFB9
:102F9000F80111821082D1CFFC01F382E282148207
:102FA00016821582CF01DF91CF911F910F91FF9073
:102FB000EF90DF90CF90BF90AF909F900895CF9209
:102FC000DF92EF92FF920F931F93CF93DF938C01C9
:102FD0006A017B01C02FD12F82E0E816F104A4F032
:102FE000C6010E946D1C8F3F2FEF920721F41882BB
:102FF00080E090E00BC02196FE013197808321E0B4
:10300000E21AF1080A9741F71882C801DF91CF91BF
:103010001F910F91FF90EF90DF90CF900895DB010B
:10302000FC0101900020E9F73197AF01481B590BD3
:10303000BC018D919C910C94EE1BCF93DF93CDB787
:10304000DEB7AE014A5F5F4FFA0161917191AF0146
:1030500080919F029091A0020E944618DF91CF912B
:10306000089560919F027091A0020E940F188F3FF7
:103070002FEF920751F060919F027091A0028AE0B9
:1030800090E00E949F1C80E090E008950F931F93B2
:103090009B01FC01808191818A01AC0165E17CE1A9
:1030A0008EEE9BE10E94BF181F910F910895BC0105
:1030B00084E994E00E94EF02009731F42CE030E0C4
:1030C0003093B6042093B5040895BC0184E994E0DC
:1030D0000C944203CF92DF92EF92FF920F931F93D3
:1030E000CF93DF938C017B016A01E901C131D105E6
:1030F00044F040E150E0B601C701F801199560972E
:10310000F5CF1C161D066CF4AE01B601C701F8011F
:10311000DF91CF911F910F91FF90EF90DF90CF90B3
:103120001994DF91CF911F910F91FF90EF90DF9055
:10313000CF900895DB01ED91FC91119783FF09C0B9
:10314000CF0104968D939C936081718182819381DC
:10315000089586FF09C0CF0102968D939C936081EC
:10316000718180E090E00895CF0102968D939C9349
:1031700060817181072E000C880B990B08952F92A6
:103180003F924F925F926F927F928F929F92AF92F7
:10319000BF92CF92DF92EF92FF920F931F93CF9344
:1031A000DF93CDB7DEB7A6970FB6F894DEBF0FBE9C
:1031B000CDBF9DA38CA37BA36AA358A34F8F5901B6
:1031C0001B8F0A8F212C312CCE0101962C01DE01A0
:1031D0005996BD8FAC8FF5017F01BFEFEB1AFB0A4B
:1031E000D080DD2029F025E2D21611F0F701F4CFCE
:1031F0008F010A191B0949F0A801B5018F8D98A10B
:10320000ECA1FDA11995200E311EDD2009F4CCC2E0
:10321000D701198EEA8DFB8D30E050E040E0EE24BE
:10322000EA94FE2C612C712C1E8E5D012FEFA21AE8
:10323000B20A1C9119A3103229F4411107C051E0C0
:1032400040E204C01B3221F451E04BE2D501EDCF46
:103250001D3221F46E8D64606E8FF8CF133219F435
:103260008E8D816017C0103321F49E8D90619E8FEA
:10327000EDCF1C3689F411968C9111978C3641F460
:103280002E8D20622E8F5D0162E0A60EB11CDECF76
:103290008E8D88608E8FDACF1A37C1F21A3279F4A8
:1032A000CF0102966080718077FE06C0AE8DA4606B
:1032B000AE8F719461947108FC0131E0C7CF1E326A
:1032C000A9F511968C9111978A3221F0C501E12C54
:1032D000F12C12C05D0122E0A20EB11CCF010296BA
:1032E000E080F180F7FE06C0FC0131E0EE24EA94B4
:1032F000FE2CACCF31E018C05C01DC012C910196B2
:1033000060ED620F6A3078F4AAE0AE9DB001AF9D27
:10331000700D1124E22E220FFF08B0E3EB1AF10822
:10332000E60EF71EE9CFCF01FC0190CF8FEC810FA5
:103330008930E0F4612E712CB0E36B1A7108D5016D
:103340005D012D9180ED820F8A3008F07FCF6AE019
:10335000669DC001679D900D1124622E220F770893
:1033600020E3621A7108680E791EEACF5111498F65
:10337000332311F0FB8FEA8F1836ACF415360CF0BE
:1033800081C11035B1F13CF4153409F47BC1173417
:1033900009F478C18DC1133619F10CF06BC01835E2
:1033A00009F40DC185C1103709F409C13CF419367F
:1033B00009F460C01F3609F4B3C07AC1153709F4A7
:1033C00055C0183709F4FBC0133709F071C1EA8DF5
:1033D000FB8DCF0102969B8F8A8F008111811EC0C9
:1033E000EA8DFB8DCF0102969B8F8A8F8081898326
:1033F00063C1EA8DFB8DCF0102969B8F8A8FC080BF
:10340000D180C114D10471F0C6010E94491D0196FA
:103410000E9457188C01B6010E94421D011511052A
:1034200029F402C063E769A309E514E08FEFE81609
:10343000F80679F0A70160E070E0C8010E94521D13
:10344000009779F0801B910B8E159F0554F47C0139
:1034500008C0F80101900020E9F731977F01E01AD8
:10346000F10A198E6701E12CF12C2FC1198E9E8D66
:1034700090649E8FAE8DA5FF08C08A8D9B8D0896A7
:103480009B8F8A8F6FE772E0A4C0BE01665E7F4F9C
:10349000BE8D8B2F90E00E949A18153759F097FF38
:1034A00009C090958095709561957F4F8F4F9F4F84
:1034B0002DE2298FEFEFEE16FE0669F0FE8DFF7EFE
:1034C000FE8F611571058105910551F4E114F10438
:1034D00009F44AC00AC0611571058105910529F0FA
:1034E0006A3071058105910530F4605D688F8E0149
:1034F000085E1F4F61C08E01075E1F4F2AE030E05B
:1035000040E050E00E94F61C605DD8016E938D0192
:10351000B901CA01611571058105910579F74CC0A2
:10352000BE8DB5FF08C08A8D9B8D08969B8F8A8FB4
:103530006CE772E04EC0BE01665E7F4FEE8D8E2F4F
:1035400090E00E949A18198EFFEFEF16FF0681F0A7
:103550002E8D2F7E2E8F611571058105910571F4D9
:10356000E114F10409F019C18E01075E1F4F24C058
:10357000611571058105910509F40FC18E01075E82
:103580001F4F262F2770205DD8012E938D01E3E079
:103590009695879577956795EA95D1F761157105A9
:1035A0008105910571F7BE8DB0FF06C0203321F073
:1035B000F80180E382938F01CC8CDD8C60C0EE8DAE
:1035C000E5FF0EC08A8D9B8D08969B8F8A8F69E7D9
:1035D00072E0C2010E94421D52E0C52ED12C64C08F
:1035E000103789F4EA8DFB8DCF0102969B8F8A8F6D
:1035F00040815181BA0180E090E0FE8DF160FE8F44
:1036000028E729A308C0BE01665E7F4FAE8D8A2FD2
:1036100090E00E949A18198EBFEFEB16FB0619F086
:10362000EE8DEF7EEE8FF9A1F83719F422E932E042
:1036300002C022E832E08E01075E1F4F6801FB01E5
:10364000EF70FF27E20FF31FE491D801EE938D0195
:1036500044E096958795779567954A95D1F76115DA
:1036600071058105910559F7BE8DB0FF08C0F801BD
:10367000319729A12083319780E380838F01C01A7D
:10368000D10A23C08A8D9B8D04969B8F8A8F66E713
:1036900072E0C2010E94421DF20101900020E9F790
:1036A00031976F01C418D508E12CF12C82010DC0AF
:1036B000112309F479C01983198ECC24C394D12C19
:1036C000E12CF12C8E010F5F1F4F4701EC14FD041C
:1036D0000CF44601898D882319F06FEF861A960A3B
:1036E0008E8D84718EA381110BC093012819390925
:1036F00042EB52E06F8D78A18AA19BA10E946A18CB
:10370000898D882351F041E050E0BE01675E7F4F14
:103710008F8D98A1ECA1FDA11995FEA1F03159F46E
:1037200093012819390942EA52E06F8D78A18AA1E4
:103730009BA10E946A1897012C193D0942EA52E0A8
:103740006F8D78A18AA19BA10E946A18C114D1042F
:1037500039F0A601B8018F8D98A1ECA1FDA11995B2
:10376000F9A1F03519F4C8010E9465182E8D22FFC9
:103770000BC093012819390942EB52E06F8D78A1F3
:103780008AA19BA10E946A18681479041CF0260C77
:10379000371C21CD280C391C1ECD80E3888F20E3F7
:1037A0008E01085E1F4FFFCEC101A6960FB6F8949A
:1037B000DEBF0FBECDBFDF91CF911F910F91FF9064
:1037C000EF90DF90CF90BF90AF909F908F907F90C1
:1037D0006F905F904F903F902F90089588309105A3
:1037E00038F089E090E09093B6048093B5041AC055
:1037F000880F991FFC01EC57FB4F80819181009746
:1038000081F3DC01ED91FC911197309729F4179623
:10381000ED91FC91189705C0018CF28DE02D309749
:1038200009F019948FEF9FEF089588309105C0F447
:10383000880F991FFC01EC57FB4F80819181009705
:1038400079F0DC01ED91FC911197309729F41996EC
:10385000ED91FC911A9703C0038CF48DE02D19941F
:1038600089E090E09093B6048093B5048FEF9FEFCA
:103870000895FC012081223771F0273739F0213675
:1038800099F46AE071E049E051E009C062E073E058
:1038900041E053E004C062E070E040E050E0FC0131
:1038A000319620E030E40CC086E190E09093B604BD
:1038B0008093B5048FEF9FEF08958B3229F4AB010D
:1038C00081918111FACF05C0823671F720E030E88E
:1038D000F7CFCA01822B932B08950F931F93CF9399
:1038E000DF931F92CDB7DEB78C01FC01848183FF8B
:1038F00005C0877F8483858196811BC041E050E0AD
:10390000BE016F5F7F4FF801808191810E94BF1CD3
:103910009C01019761F0F8019481232B11F09061D3
:1039200002C09062F80194838FEF9FEF02C08981FB
:1039300090E00F90DF91CF911F910F9108950F9319
:103940001F93CF93DF931F92CDB7DEB7182F092FA8
:10395000FB01898341E050E0BE016F5F7F4F8081B2
:1039600091810E94EE1B019711F01FEF0FEF812F45
:10397000902F0F90DF91CF911F910F910895883074
:10398000910538F089E090E09093B6048093B504F7
:103990001AC0880F991FFC01EC57FB4F8081918161
:1039A000009781F3DC01ED91FC911197309729F498
:1039B0001596ED91FC91169705C00788F08DE02DC6
:1039C000309709F019948FEF9FEF0895DB018F93E3
:1039D0009F930E94201DBF91AF91A29F800D911DCA
:1039E000A39F900DB29F900D11240895A1E21A2E6D
:1039F000AA1BBB1BFD010DC0AA1FBB1FEE1FFF1F93
:103A0000A217B307E407F50720F0A21BB30BE40BE2
:103A1000F50B661F771F881F991F1A9469F7609529
:103A20007095809590959B01AC01BD01CF010895E3
:103A3000EE0FFF1F881F8BBF0790F691E02D1994A2
:103A40000E94331DA59F900DB49F900DA49F800DE3
:103A5000911D11240895B7FF0C94201D0E94201D74
:103A6000821B930B0895A29FB001B39FC001A39F37
:103A7000700D811D1124911DB29F700D811D1124A7
:103A8000911D0895FB01DC0105900D920020E1F7E6
:103A90000895FC0105900020E9F7809590958E0F20
:103AA0009F1F0895FC014150504030F001900616D0
:103AB000D1F73197CF010895882799270895FB0101
:103AC000DC0104C08D910190801921F441505040D7
:103AD000C8F7881B990B0895FB01DC018D910190BB
:103AE00080190110D9F3990B0895FB01DC010190B5
:103AF0000D920020E1F70895DC01CB01FC01F9995A
:103B0000FECF06C0F2BDE1BDF89A319600B40D9229
:0C3B100041505040B8F70895F894FFCFE2
:103B1C00FF00000000190B0000756172743000008A
:103B2C0000000500000000002C02F011D21310124E
:103B3C00F81201135E130A13BF15CF150000000015
:103B4C000000000000000000000000000000000069
:103B5C000000000000000000000000000000000059
:103B6C000000000000000000000000000000000049
:103B7C0000000000000000000000000000610F4782
:103B8C000D640C420F360C290CF70CA90C6E0E545C
:103B9C000EBB0EAD0E880C910BC20B990B020FEBEA
:103BAC000E00000000800F00000000F30F01000267
:103BBC00000300000000000000000000007700720D
:103BCC00000A4E75742F4F53205072696E74662024
:103BDC0053616D706C65206F6E2047656E65726900
:103BEC006320415652204665622020362032303107
:103BFC00362032333A31343A35370A000A0A4E75D8
:103C0C00742F4F532025730A002564206279746544
:103C1C007320667265652C20646562756720646527
:103C2C00763A2025730A000A4578706578742070FE
:103C3C006C6C20307830313233343536373839616A
:103C4C0062636465662C2070626120307861612C3F
:103C5C0020706235203078353500706C6C20253240
:103C6C00306C6C782070626120307825303278208E
:103C7C00706235203078253032780A00706261200D
:103C8C0030782530327820706C6C2532306C6C7842
:103C9C0020706235203078253032780A000A457859
:103CAC007065787420706C6C692031303030303035
:103CBC003030303030303000706C6C69202533324D
:103CCC006C6C640A000A4578706578742070642006
:103CDC00332E31343135392C2070626120307861CB
:103CEC00612C2070623520307835350070642025C9
:103CFC00662C20706261203078253032782C207050
:103D0C006235203078253032780A007062612030BC
:103D1C0078253032782C2070642025662C20207079
:103D2C006235203078253032780A000A507265737B
:103D3C00732022456E7465722220746F2072657038
:103D4C00656174206F7574707574006D61696E00B7
:103D5C0069646C6500352E322E342E30004F5300C2
:103D6C0065746865726E757400286E756C6C2900CC
:00000001FF
